{
  "_format": "hh-sol-artifact-1",
  "contractName": "TokenExchange",
  "sourceName": "contracts/exchange.sol",
  "abi": [
    {
      "inputs": [],
      "stateMutability": "nonpayable",
      "type": "constructor"
    },
    {
      "anonymous": false,
      "inputs": [
        {
          "indexed": true,
          "internalType": "address",
          "name": "previousOwner",
          "type": "address"
        },
        {
          "indexed": true,
          "internalType": "address",
          "name": "newOwner",
          "type": "address"
        }
      ],
      "name": "OwnershipTransferred",
      "type": "event"
    },
    {
      "inputs": [
        {
          "internalType": "uint256",
          "name": "max_exchange_rate",
          "type": "uint256"
        },
        {
          "internalType": "uint256",
          "name": "min_exchange_rate",
          "type": "uint256"
        }
      ],
      "name": "addLiquidity",
      "outputs": [],
      "stateMutability": "payable",
      "type": "function"
    },
    {
      "inputs": [
        {
          "internalType": "uint256",
          "name": "amountTokens",
          "type": "uint256"
        }
      ],
      "name": "createPool",
      "outputs": [],
      "stateMutability": "payable",
      "type": "function"
    },
    {
      "inputs": [],
      "name": "exchange_name",
      "outputs": [
        {
          "internalType": "string",
          "name": "",
          "type": "string"
        }
      ],
      "stateMutability": "view",
      "type": "function"
    },
    {
      "inputs": [],
      "name": "getSwapFee",
      "outputs": [
        {
          "internalType": "uint256",
          "name": "",
          "type": "uint256"
        },
        {
          "internalType": "uint256",
          "name": "",
          "type": "uint256"
        }
      ],
      "stateMutability": "view",
      "type": "function"
    },
    {
      "inputs": [
        {
          "internalType": "address",
          "name": "",
          "type": "address"
        }
      ],
      "name": "lpBalances",
      "outputs": [
        {
          "internalType": "uint256",
          "name": "",
          "type": "uint256"
        }
      ],
      "stateMutability": "view",
      "type": "function"
    },
    {
      "inputs": [
        {
          "internalType": "address",
          "name": "who",
          "type": "address"
        }
      ],
      "name": "lpOf",
      "outputs": [
        {
          "internalType": "uint256",
          "name": "",
          "type": "uint256"
        }
      ],
      "stateMutability": "view",
      "type": "function"
    },
    {
      "inputs": [
        {
          "internalType": "address",
          "name": "",
          "type": "address"
        }
      ],
      "name": "lps",
      "outputs": [
        {
          "internalType": "uint256",
          "name": "",
          "type": "uint256"
        }
      ],
      "stateMutability": "view",
      "type": "function"
    },
    {
      "inputs": [],
      "name": "owner",
      "outputs": [
        {
          "internalType": "address",
          "name": "",
          "type": "address"
        }
      ],
      "stateMutability": "view",
      "type": "function"
    },
    {
      "inputs": [
        {
          "internalType": "uint256",
          "name": "maxRate",
          "type": "uint256"
        },
        {
          "internalType": "uint256",
          "name": "minRate",
          "type": "uint256"
        }
      ],
      "name": "removeAllLiquidity",
      "outputs": [],
      "stateMutability": "payable",
      "type": "function"
    },
    {
      "inputs": [
        {
          "internalType": "uint256",
          "name": "ethOut",
          "type": "uint256"
        },
        {
          "internalType": "uint256",
          "name": "maxRate",
          "type": "uint256"
        },
        {
          "internalType": "uint256",
          "name": "minRate",
          "type": "uint256"
        }
      ],
      "name": "removeLiquidity",
      "outputs": [],
      "stateMutability": "payable",
      "type": "function"
    },
    {
      "inputs": [],
      "name": "renounceOwnership",
      "outputs": [],
      "stateMutability": "nonpayable",
      "type": "function"
    },
    {
      "inputs": [
        {
          "internalType": "uint256",
          "name": "maxRate",
          "type": "uint256"
        }
      ],
      "name": "swapETHForTokens",
      "outputs": [],
      "stateMutability": "payable",
      "type": "function"
    },
    {
      "inputs": [
        {
          "internalType": "uint256",
          "name": "amountTok",
          "type": "uint256"
        },
        {
          "internalType": "uint256",
          "name": "maxRate",
          "type": "uint256"
        }
      ],
      "name": "swapTokensForETH",
      "outputs": [],
      "stateMutability": "payable",
      "type": "function"
    },
    {
      "inputs": [],
      "name": "token",
      "outputs": [
        {
          "internalType": "contract Token",
          "name": "",
          "type": "address"
        }
      ],
      "stateMutability": "view",
      "type": "function"
    },
    {
      "inputs": [],
      "name": "totalLPSupply",
      "outputs": [
        {
          "internalType": "uint256",
          "name": "",
          "type": "uint256"
        }
      ],
      "stateMutability": "view",
      "type": "function"
    },
    {
      "inputs": [
        {
          "internalType": "address",
          "name": "newOwner",
          "type": "address"
        }
      ],
      "name": "transferOwnership",
      "outputs": [],
      "stateMutability": "nonpayable",
      "type": "function"
    }
  ],
  "bytecode": "0x60c0604052600b60808190526a66696974586368616e676560a81b60a09081526200002e9160019190620000e6565b5060028054735fbdb2315678afecb367f032d93f642f64180aa36001600160a01b031991821681179092556003805490911690911781556000600481905560055560085560646009553480156200008457600080fd5b50620000903362000096565b620001c9565b600080546001600160a01b038381166001600160a01b0319831681178455604051919092169283917f8be0079c531659141344cd1fd0a4f28419497f9722a3daafe3b4186f6b6457e09190a35050565b828054620000f4906200018c565b90600052602060002090601f01602090048101928262000118576000855562000163565b82601f106200013357805160ff191683800117855562000163565b8280016001018555821562000163579182015b828111156200016357825182559160200191906001019062000146565b506200017192915062000175565b5090565b5b8082111562000171576000815560010162000176565b600181811c90821680620001a157607f821691505b60208210811415620001c357634e487b7160e01b600052602260045260246000fd5b50919050565b61158880620001d96000396000f3fe6080604052600436106100f35760003560e01c8063a22280a61161008a578063ec0047ef11610059578063ec0047ef1461025e578063f2fde38b14610294578063f694f7d1146102b4578063fc0c546a146102d657600080fd5b8063a22280a6146101e0578063d12e7332146101f3578063d1a8671114610220578063d4cadf681461023657600080fd5b80638259e6a0116100c65780638259e6a014610175578063857620e1146101885780638da5cb5b1461019b5780639cd441da146101cd57600080fd5b80630b65092d146100f85780632eab28411461013857806358ad6de41461014d578063715018a614610160575b600080fd5b34801561010457600080fd5b50610125610113366004611348565b600c6020526000908152604090205481565b6040519081526020015b60405180910390f35b61014b610146366004611378565b6102f6565b005b61014b61015b366004611391565b6104e3565b34801561016c57600080fd5b5061014b610546565b61014b610183366004611378565b61055a565b61014b6101963660046113b3565b6108fa565b3480156101a757600080fd5b506000546001600160a01b03165b6040516001600160a01b03909116815260200161012f565b61014b6101db366004611391565b610b59565b61014b6101ee366004611391565b610f81565b3480156101ff57600080fd5b5061012561020e366004611348565b60066020526000908152604090205481565b34801561022c57600080fd5b50610125600b5481565b34801561024257600080fd5b506008546009546040805192835260208301919091520161012f565b34801561026a57600080fd5b50610125610279366004611348565b6001600160a01b031660009081526006602052604090205490565b3480156102a057600080fd5b5061014b6102af366004611348565b61116d565b3480156102c057600080fd5b506102c96111e6565b60405161012f91906113df565b3480156102e257600080fd5b506003546101b5906001600160a01b031681565b34806103375760405162461bcd60e51b815260206004820152600b60248201526a16995c9bc8185b5bdd5b9d60aa1b60448201526064015b60405180910390fd5b6000610341611274565b9050828110156103895760405162461bcd60e51b8152602060048201526013602482015272536c69707061676520286d696e20726174652960681b604482015260640161032e565b600060095460085460095461039e919061144a565b6103a89085611461565b6103b29190611480565b90506000816005546103c491906114a2565b6004546103d19084611461565b6103db9190611480565b90506001816004546103ed919061144a565b10156104275760405162461bcd60e51b8152602060048201526009602482015268447261696e20544f4b60b81b604482015260640161032e565b60035460405163a9059cbb60e01b8152336004820152602481018390526001600160a01b039091169063a9059cbb90604401602060405180830381600087803b15801561047357600080fd5b505af1158015610487573d6000803e3d6000fd5b505050506040513d601f19601f820116820180604052508101906104ab91906114ba565b5083600560008282546104be91906114a2565b9250508190555080600460008282546104d7919061144a565b90915550505050505050565b33600090815260066020526040902054806105365760405162461bcd60e51b81526020600482015260136024820152724e6f7468696e6720746f20776974686472617760681b604482015260640161032e565b6105418184846108fa565b505050565b61054e61129e565b61055860006112f8565b565b61056261129e565b600454156105b25760405162461bcd60e51b815260206004820152601860248201527f546f6b656e20726573657276657320776173206e6f7420300000000000000000604482015260640161032e565b600554156106025760405162461bcd60e51b815260206004820152601760248201527f45544820726573657276657320776173206e6f7420302e000000000000000000604482015260640161032e565b600034116106525760405162461bcd60e51b815260206004820152601860248201527f4e6565642065746820746f2063726561746520706f6f6c2e0000000000000000604482015260640161032e565b6003546040516370a0823160e01b81523360048201526000916001600160a01b0316906370a082319060240160206040518083038186803b15801561069657600080fd5b505afa1580156106aa573d6000803e3d6000fd5b505050506040513d601f19601f820116820180604052508101906106ce91906114dc565b9050808211156107325760405162461bcd60e51b815260206004820152602960248201527f4e6f74206861766520656e6f75676820746f6b656e7320746f20637265617465604482015268081d1a19481c1bdbdb60ba1b606482015260840161032e565b600082116107825760405162461bcd60e51b815260206004820152601b60248201527f4e65656420746f6b656e7320746f2063726561746520706f6f6c2e0000000000604482015260640161032e565b6003546040516323b872dd60e01b8152336004820152306024820152604481018490526001600160a01b03909116906323b872dd90606401602060405180830381600087803b1580156107d457600080fd5b505af11580156107e8573d6000803e3d6000fd5b505050506040513d601f19601f8201168201806040525081019061080c91906114ba565b506003546040516370a0823160e01b81523060048201526001600160a01b03909116906370a082319060240160206040518083038186803b15801561085057600080fd5b505afa158015610864573d6000803e3d6000fd5b505050506040513d601f19601f8201168201806040525081019061088891906114dc565b600481905534600581905561089c91611461565b600a555050600b54336000818152600c60205260408120929092556007805460018101825592527fa66cc928b5edb82af9bd49922954155ab7b0942694bea4ce44661d9a8736c68890910180546001600160a01b0319169091179055565b336000908152600660205260409020548311156109495760405162461bcd60e51b815260206004820152600d60248201526c04e6f7420656e6f756768204c5609c1b604482015260640161032e565b600183600554610959919061144a565b10156109935760405162461bcd60e51b8152602060048201526009602482015268088e4c2d2dc408aa8960bb1b604482015260640161032e565b600061099d611274565b90508281111580156109af5750818110155b6109cb5760405162461bcd60e51b815260040161032e906114f5565b6000600554600454866109de9190611461565b6109e89190611480565b90506001816004546109fa919061144a565b1015610a365760405162461bcd60e51b815260206004820152600b60248201526a223930b4b7103a37b5b2b760a91b604482015260640161032e565b3360009081526006602052604081208054879290610a5590849061144a565b925050819055508460056000828254610a6e919061144a565b925050819055508060046000828254610a87919061144a565b9091555050600454600554610a9c9190611461565b600a55604051339086156108fc029087906000818181858888f19350505050158015610acc573d6000803e3d6000fd5b5060035460405163a9059cbb60e01b8152336004820152602481018390526001600160a01b039091169063a9059cbb90604401602060405180830381600087803b158015610b1957600080fd5b505af1158015610b2d573d6000803e3d6000fd5b505050506040513d601f19601f82011682018060405250810190610b5191906114ba565b505050505050565b60003411610b975760405162461bcd60e51b815260206004820152600b60248201526a1393c8115512081cd95b9d60aa1b604482015260640161032e565b6000600454118015610bab57506000600554115b610bf75760405162461bcd60e51b815260206004820152601760248201527f506f6f6c206973206e6f7420696e697469616c69736564000000000000000000604482015260640161032e565b6000610c01611274565b9050828111158015610c135750818110155b610c2f5760405162461bcd60e51b815260040161032e906114f5565b600060055460045434610c429190611461565b610c4c9190611480565b600354604051636eb1769f60e11b815233600482015230602482015291925082916001600160a01b039091169063dd62ed3e9060440160206040518083038186803b158015610c9a57600080fd5b505afa158015610cae573d6000803e3d6000fd5b505050506040513d601f19601f82011682018060405250810190610cd291906114dc565b1015610d175760405162461bcd60e51b8152602060048201526014602482015273105c1c1c9bdd99481d1bdad95b9cc8199a5c9cdd60621b604482015260640161032e565b6003546040516370a0823160e01b815233600482015282916001600160a01b0316906370a082319060240160206040518083038186803b158015610d5a57600080fd5b505afa158015610d6e573d6000803e3d6000fd5b505050506040513d601f19601f82011682018060405250810190610d9291906114dc565b1015610dd45760405162461bcd60e51b81526020600482015260116024820152704e6f7420656e6f75676820746f6b656e7360781b604482015260640161032e565b6003546040516323b872dd60e01b8152336004820152306024820152604481018390526001600160a01b03909116906323b872dd90606401602060405180830381600087803b158015610e2657600080fd5b505af1158015610e3a573d6000803e3d6000fd5b505050506040513d601f19601f82011682018060405250810190610e5e91906114ba565b508060046000828254610e7191906114a2565b925050819055503460056000828254610e8a91906114a2565b9091555050600554600454610e9f9190611461565b600a55600b5460009015610ecc57600554600b54610ebd9034611461565b610ec79190611480565b610ece565b345b905080600b6000828254610ee291906114a2565b9091555050336000908152600c602052604081208054839290610f069084906114a2565b909155505033600090815260066020526040902054610f6257600780546001810182556000919091527fa66cc928b5edb82af9bd49922954155ab7b0942694bea4ce44661d9a8736c6880180546001600160a01b031916331790555b33600090815260066020526040812080543492906104d79084906114a2565b60008211610fbf5760405162461bcd60e51b815260206004820152600b60248201526a16995c9bc8185b5bdd5b9d60aa1b604482015260640161032e565b6000610fc9611274565b905081811115610feb5760405162461bcd60e51b815260040161032e906114f5565b6000600954600854600954611000919061144a565b61100a9086611461565b6110149190611480565b905060008160045461102691906114a2565b6005546110339084611461565b61103d9190611480565b905060018160055461104f919061144a565b10156110895760405162461bcd60e51b8152602060048201526009602482015268088e4c2d2dc408aa8960bb1b604482015260640161032e565b6003546040516323b872dd60e01b8152336004820152306024820152604481018790526001600160a01b03909116906323b872dd90606401602060405180830381600087803b1580156110db57600080fd5b505af11580156110ef573d6000803e3d6000fd5b505050506040513d601f19601f8201168201806040525081019061111391906114ba565b50604051339082156108fc029083906000818181858888f19350505050158015611141573d6000803e3d6000fd5b50846004600082825461115491906114a2565b9250508190555080600560008282546104d7919061144a565b61117561129e565b6001600160a01b0381166111da5760405162461bcd60e51b815260206004820152602660248201527f4f776e61626c653a206e6577206f776e657220697320746865207a65726f206160448201526564647265737360d01b606482015260840161032e565b6111e3816112f8565b50565b600180546111f390611517565b80601f016020809104026020016040519081016040528092919081815260200182805461121f90611517565b801561126c5780601f106112415761010080835404028352916020019161126c565b820191906000526020600020905b81548152906001019060200180831161124f57829003601f168201915b505050505081565b6000600554600454670de0b6b3a764000061128f9190611461565b6112999190611480565b905090565b6000546001600160a01b031633146105585760405162461bcd60e51b815260206004820181905260248201527f4f776e61626c653a2063616c6c6572206973206e6f7420746865206f776e6572604482015260640161032e565b600080546001600160a01b038381166001600160a01b0319831681178455604051919092169283917f8be0079c531659141344cd1fd0a4f28419497f9722a3daafe3b4186f6b6457e09190a35050565b60006020828403121561135a57600080fd5b81356001600160a01b038116811461137157600080fd5b9392505050565b60006020828403121561138a57600080fd5b5035919050565b600080604083850312156113a457600080fd5b50508035926020909101359150565b6000806000606084860312156113c857600080fd5b505081359360208301359350604090920135919050565b600060208083528351808285015260005b8181101561140c578581018301518582016040015282016113f0565b8181111561141e576000604083870101525b50601f01601f1916929092016040019392505050565b634e487b7160e01b600052601160045260246000fd5b60008282101561145c5761145c611434565b500390565b600081600019048311821515161561147b5761147b611434565b500290565b60008261149d57634e487b7160e01b600052601260045260246000fd5b500490565b600082198211156114b5576114b5611434565b500190565b6000602082840312156114cc57600080fd5b8151801515811461137157600080fd5b6000602082840312156114ee57600080fd5b5051919050565b602080825260089082015267536c69707061676560c01b604082015260600190565b600181811c9082168061152b57607f821691505b6020821081141561154c57634e487b7160e01b600052602260045260246000fd5b5091905056fea2646970667358221220f71833b2711512eee4b452442811ca71c1561591df617e1b6af3becd0930a71564736f6c63430008090033",
  "linkReferences": {},
  "deployedLinkReferences": {}
}