{
  "_format": "hh-sol-artifact-1",
  "contractName": "TokenExchange",
  "sourceName": "contracts/exchange.sol",
  "abi": [
    {
      "inputs": [],
      "stateMutability": "nonpayable",
      "type": "constructor"
    },
    {
      "anonymous": false,
      "inputs": [
        {
          "indexed": true,
          "internalType": "address",
          "name": "previousOwner",
          "type": "address"
        },
        {
          "indexed": true,
          "internalType": "address",
          "name": "newOwner",
          "type": "address"
        }
      ],
      "name": "OwnershipTransferred",
      "type": "event"
    },
    {
      "inputs": [
        {
          "internalType": "uint256",
          "name": "max_exchange_rate",
          "type": "uint256"
        },
        {
          "internalType": "uint256",
          "name": "min_exchange_rate",
          "type": "uint256"
        }
      ],
      "name": "addLiquidity",
      "outputs": [],
      "stateMutability": "payable",
      "type": "function"
    },
    {
      "inputs": [
        {
          "internalType": "uint256",
          "name": "amountTokens",
          "type": "uint256"
        }
      ],
      "name": "createPool",
      "outputs": [],
      "stateMutability": "payable",
      "type": "function"
    },
    {
      "inputs": [],
      "name": "exchange_name",
      "outputs": [
        {
          "internalType": "string",
          "name": "",
          "type": "string"
        }
      ],
      "stateMutability": "view",
      "type": "function"
    },
    {
      "inputs": [],
      "name": "getSwapFee",
      "outputs": [
        {
          "internalType": "uint256",
          "name": "",
          "type": "uint256"
        },
        {
          "internalType": "uint256",
          "name": "",
          "type": "uint256"
        }
      ],
      "stateMutability": "view",
      "type": "function"
    },
    {
      "inputs": [
        {
          "internalType": "address",
          "name": "",
          "type": "address"
        }
      ],
      "name": "lpBalances",
      "outputs": [
        {
          "internalType": "uint256",
          "name": "",
          "type": "uint256"
        }
      ],
      "stateMutability": "view",
      "type": "function"
    },
    {
      "inputs": [],
      "name": "owner",
      "outputs": [
        {
          "internalType": "address",
          "name": "",
          "type": "address"
        }
      ],
      "stateMutability": "view",
      "type": "function"
    },
    {
      "inputs": [
        {
          "internalType": "uint256",
          "name": "maxRate",
          "type": "uint256"
        },
        {
          "internalType": "uint256",
          "name": "minRate",
          "type": "uint256"
        }
      ],
      "name": "removeAllLiquidity",
      "outputs": [],
      "stateMutability": "payable",
      "type": "function"
    },
    {
      "inputs": [
        {
          "internalType": "uint256",
          "name": "ethOut",
          "type": "uint256"
        },
        {
          "internalType": "uint256",
          "name": "maxRate",
          "type": "uint256"
        },
        {
          "internalType": "uint256",
          "name": "minRate",
          "type": "uint256"
        }
      ],
      "name": "removeLiquidity",
      "outputs": [],
      "stateMutability": "payable",
      "type": "function"
    },
    {
      "inputs": [],
      "name": "renounceOwnership",
      "outputs": [],
      "stateMutability": "nonpayable",
      "type": "function"
    },
    {
      "inputs": [
        {
          "internalType": "uint256",
          "name": "maxRate",
          "type": "uint256"
        }
      ],
      "name": "swapETHForTokens",
      "outputs": [],
      "stateMutability": "payable",
      "type": "function"
    },
    {
      "inputs": [
        {
          "internalType": "uint256",
          "name": "amountTok",
          "type": "uint256"
        },
        {
          "internalType": "uint256",
          "name": "maxRate",
          "type": "uint256"
        }
      ],
      "name": "swapTokensForETH",
      "outputs": [],
      "stateMutability": "payable",
      "type": "function"
    },
    {
      "inputs": [],
      "name": "token",
      "outputs": [
        {
          "internalType": "contract Token",
          "name": "",
          "type": "address"
        }
      ],
      "stateMutability": "view",
      "type": "function"
    },
    {
      "inputs": [],
      "name": "totalLPSupply",
      "outputs": [
        {
          "internalType": "uint256",
          "name": "",
          "type": "uint256"
        }
      ],
      "stateMutability": "view",
      "type": "function"
    },
    {
      "inputs": [
        {
          "internalType": "address",
          "name": "newOwner",
          "type": "address"
        }
      ],
      "name": "transferOwnership",
      "outputs": [],
      "stateMutability": "nonpayable",
      "type": "function"
    }
  ],
  "bytecode": "0x60806040526040518060400160405280600381526020017f4741590000000000000000000000000000000000000000000000000000000000815250600190816200004a919062000491565b50733af511b1bdd6a0377e23796ad6b7391d8de68636600260006101000a81548173ffffffffffffffffffffffffffffffffffffffff021916908373ffffffffffffffffffffffffffffffffffffffff160217905550600260009054906101000a900473ffffffffffffffffffffffffffffffffffffffff16600360006101000a81548173ffffffffffffffffffffffffffffffffffffffff021916908373ffffffffffffffffffffffffffffffffffffffff16021790555060006004556000600555600360085560646009553480156200012457600080fd5b5062000145620001396200014b60201b60201c565b6200015360201b60201c565b62000578565b600033905090565b60008060009054906101000a900473ffffffffffffffffffffffffffffffffffffffff169050816000806101000a81548173ffffffffffffffffffffffffffffffffffffffff021916908373ffffffffffffffffffffffffffffffffffffffff1602179055508173ffffffffffffffffffffffffffffffffffffffff168173ffffffffffffffffffffffffffffffffffffffff167f8be0079c531659141344cd1fd0a4f28419497f9722a3daafe3b4186f6b6457e060405160405180910390a35050565b600081519050919050565b7f4e487b7100000000000000000000000000000000000000000000000000000000600052604160045260246000fd5b7f4e487b7100000000000000000000000000000000000000000000000000000000600052602260045260246000fd5b600060028204905060018216806200029957607f821691505b602082108103620002af57620002ae62000251565b5b50919050565b60008190508160005260206000209050919050565b60006020601f8301049050919050565b600082821b905092915050565b600060088302620003197fffffffffffffffffffffffffffffffffffffffffffffffffffffffffffffffff82620002da565b620003258683620002da565b95508019841693508086168417925050509392505050565b6000819050919050565b6000819050919050565b6000620003726200036c62000366846200033d565b62000347565b6200033d565b9050919050565b6000819050919050565b6200038e8362000351565b620003a66200039d8262000379565b848454620002e7565b825550505050565b600090565b620003bd620003ae565b620003ca81848462000383565b505050565b5b81811015620003f257620003e6600082620003b3565b600181019050620003d0565b5050565b601f82111562000441576200040b81620002b5565b6200041684620002ca565b8101602085101562000426578190505b6200043e6200043585620002ca565b830182620003cf565b50505b505050565b600082821c905092915050565b6000620004666000198460080262000446565b1980831691505092915050565b600062000481838362000453565b9150826002028217905092915050565b6200049c8262000217565b67ffffffffffffffff811115620004b857620004b762000222565b5b620004c4825462000280565b620004d1828285620003f6565b600060209050601f831160018114620005095760008415620004f4578287015190505b62000500858262000473565b86555062000570565b601f1984166200051986620002b5565b60005b8281101562000543578489015182556001820191506020850194506020810190506200051c565b868310156200056357848901516200055f601f89168262000453565b8355505b6001600288020188555050505b505050505050565b61261380620005886000396000f3fe6080604052600436106100dd5760003560e01c80639cd441da1161007f578063d4cadf6811610059578063d4cadf6814610234578063f2fde38b14610260578063f694f7d114610289578063fc0c546a146102b4576100dd565b80639cd441da146101d1578063a22280a6146101ed578063d1a8671114610209576100dd565b8063715018a6116100bb578063715018a6146101575780638259e6a01461016e578063857620e11461018a5780638da5cb5b146101a6576100dd565b80630b65092d146100e25780632eab28411461011f57806358ad6de41461013b575b600080fd5b3480156100ee57600080fd5b50610109600480360381019061010491906117f8565b6102df565b604051610116919061183e565b60405180910390f35b61013960048036038101906101349190611885565b6102f7565b005b610155600480360381019061015091906118b2565b61050f565b005b34801561016357600080fd5b5061016c6105a6565b005b61018860048036038101906101839190611885565b6105ba565b005b6101a4600480360381019061019f91906118f2565b6109c4565b005b3480156101b257600080fd5b506101bb610cef565b6040516101c89190611954565b60405180910390f35b6101eb60048036038101906101e691906118b2565b610d18565b005b610207600480360381019061020291906118b2565b611277565b005b34801561021557600080fd5b5061021e6114d3565b60405161022b919061183e565b60405180910390f35b34801561024057600080fd5b506102496114d9565b60405161025792919061196f565b60405180910390f35b34801561026c57600080fd5b50610287600480360381019061028291906117f8565b6114ea565b005b34801561029557600080fd5b5061029e61156d565b6040516102ab9190611a28565b60405180910390f35b3480156102c057600080fd5b506102c96115fb565b6040516102d69190611aa9565b60405180910390f35b600c6020528060005260406000206000915090505481565b60003490506000811161033f576040517f08c379a000000000000000000000000000000000000000000000000000000000815260040161033690611b10565b60405180910390fd5b6000610349611621565b90508281101561038e576040517f08c379a000000000000000000000000000000000000000000000000000000000815260040161038590611b7c565b60405180910390fd5b60006009546008546009546103a39190611bcb565b846103ae9190611bff565b6103b89190611c70565b90506000816005546103ca9190611ca1565b600454836103d89190611bff565b6103e29190611c70565b90506001816004546103f49190611bcb565b1015610435576040517f08c379a000000000000000000000000000000000000000000000000000000000815260040161042c90611d21565b60405180910390fd5b600360009054906101000a900473ffffffffffffffffffffffffffffffffffffffff1673ffffffffffffffffffffffffffffffffffffffff1663a9059cbb33836040518363ffffffff1660e01b8152600401610492929190611d41565b6020604051808303816000875af11580156104b1573d6000803e3d6000fd5b505050506040513d601f19601f820116820180604052508101906104d59190611da2565b5083600560008282546104e89190611ca1565b9250508190555080600460008282546105019190611bcb565b925050819055505050505050565b6000600660003373ffffffffffffffffffffffffffffffffffffffff1673ffffffffffffffffffffffffffffffffffffffff16815260200190815260200160002054905060008111610596576040517f08c379a000000000000000000000000000000000000000000000000000000000815260040161058d90611e1b565b60405180910390fd5b6105a18184846109c4565b505050565b6105ae61164b565b6105b860006116c9565b565b6105c261164b565b600060045414610607576040517f08c379a00000000000000000000000000000000000000000000000000000000081526004016105fe90611e87565b60405180910390fd5b60006005541461064c576040517f08c379a000000000000000000000000000000000000000000000000000000000815260040161064390611ef3565b60405180910390fd5b6000341161068f576040517f08c379a000000000000000000000000000000000000000000000000000000000815260040161068690611f5f565b60405180910390fd5b6000600360009054906101000a900473ffffffffffffffffffffffffffffffffffffffff1673ffffffffffffffffffffffffffffffffffffffff166370a08231336040518263ffffffff1660e01b81526004016106ec9190611954565b602060405180830381865afa158015610709573d6000803e3d6000fd5b505050506040513d601f19601f8201168201806040525081019061072d9190611f94565b905080821115610772576040517f08c379a000000000000000000000000000000000000000000000000000000000815260040161076990612033565b60405180910390fd5b600082116107b5576040517f08c379a00000000000000000000000000000000000000000000000000000000081526004016107ac9061209f565b60405180910390fd5b600360009054906101000a900473ffffffffffffffffffffffffffffffffffffffff1673ffffffffffffffffffffffffffffffffffffffff166323b872dd3330856040518463ffffffff1660e01b8152600401610814939291906120bf565b6020604051808303816000875af1158015610833573d6000803e3d6000fd5b505050506040513d601f19601f820116820180604052508101906108579190611da2565b50600360009054906101000a900473ffffffffffffffffffffffffffffffffffffffff1673ffffffffffffffffffffffffffffffffffffffff166370a08231306040518263ffffffff1660e01b81526004016108b39190611954565b602060405180830381865afa1580156108d0573d6000803e3d6000fd5b505050506040513d601f19601f820116820180604052508101906108f49190611f94565b600481905550346005819055506005546004546109119190611bff565b600a81905550600b54600c60003373ffffffffffffffffffffffffffffffffffffffff1673ffffffffffffffffffffffffffffffffffffffff168152602001908152602001600020819055506007339080600181540180825580915050600190039060005260206000200160009091909190916101000a81548173ffffffffffffffffffffffffffffffffffffffff021916908373ffffffffffffffffffffffffffffffffffffffff1602179055505050565b82600660003373ffffffffffffffffffffffffffffffffffffffff1673ffffffffffffffffffffffffffffffffffffffff168152602001908152602001600020541015610a46576040517f08c379a0000000000000000000000000000000000000000000000000000000008152600401610a3d90612142565b60405180910390fd5b600183600554610a569190611bcb565b1015610a97576040517f08c379a0000000000000000000000000000000000000000000000000000000008152600401610a8e906121ae565b60405180910390fd5b6000610aa1611621565b9050828111158015610ab35750818110155b610af2576040517f08c379a0000000000000000000000000000000000000000000000000000000008152600401610ae99061221a565b60405180910390fd5b600060055460045486610b059190611bff565b610b0f9190611c70565b9050600181600454610b219190611bcb565b1015610b62576040517f08c379a0000000000000000000000000000000000000000000000000000000008152600401610b5990612286565b60405180910390fd5b84600660003373ffffffffffffffffffffffffffffffffffffffff1673ffffffffffffffffffffffffffffffffffffffff1681526020019081526020016000206000828254610bb19190611bcb565b925050819055508460056000828254610bca9190611bcb565b925050819055508060046000828254610be39190611bcb565b92505081905550600454600554610bfa9190611bff565b600a819055503373ffffffffffffffffffffffffffffffffffffffff166108fc869081150290604051600060405180830381858888f19350505050158015610c46573d6000803e3d6000fd5b50600360009054906101000a900473ffffffffffffffffffffffffffffffffffffffff1673ffffffffffffffffffffffffffffffffffffffff1663a9059cbb33836040518363ffffffff1660e01b8152600401610ca4929190611d41565b6020604051808303816000875af1158015610cc3573d6000803e3d6000fd5b505050506040513d601f19601f82011682018060405250810190610ce79190611da2565b505050505050565b60008060009054906101000a900473ffffffffffffffffffffffffffffffffffffffff16905090565b60003411610d5b576040517f08c379a0000000000000000000000000000000000000000000000000000000008152600401610d52906122f2565b60405180910390fd5b6000600454118015610d6f57506000600554115b610dae576040517f08c379a0000000000000000000000000000000000000000000000000000000008152600401610da59061235e565b60405180910390fd5b6000610db8611621565b9050828111158015610dca5750818110155b610e09576040517f08c379a0000000000000000000000000000000000000000000000000000000008152600401610e009061221a565b60405180910390fd5b600060055460045434610e1c9190611bff565b610e269190611c70565b905080600360009054906101000a900473ffffffffffffffffffffffffffffffffffffffff1673ffffffffffffffffffffffffffffffffffffffff1663dd62ed3e33306040518363ffffffff1660e01b8152600401610e8692919061237e565b602060405180830381865afa158015610ea3573d6000803e3d6000fd5b505050506040513d601f19601f82011682018060405250810190610ec79190611f94565b1015610f08576040517f08c379a0000000000000000000000000000000000000000000000000000000008152600401610eff906123f3565b60405180910390fd5b80600360009054906101000a900473ffffffffffffffffffffffffffffffffffffffff1673ffffffffffffffffffffffffffffffffffffffff166370a08231336040518263ffffffff1660e01b8152600401610f649190611954565b602060405180830381865afa158015610f81573d6000803e3d6000fd5b505050506040513d601f19601f82011682018060405250810190610fa59190611f94565b1015610fe6576040517f08c379a0000000000000000000000000000000000000000000000000000000008152600401610fdd9061245f565b60405180910390fd5b600360009054906101000a900473ffffffffffffffffffffffffffffffffffffffff1673ffffffffffffffffffffffffffffffffffffffff166323b872dd3330846040518463ffffffff1660e01b8152600401611045939291906120bf565b6020604051808303816000875af1158015611064573d6000803e3d6000fd5b505050506040513d601f19601f820116820180604052508101906110889190611da2565b50806004600082825461109b9190611ca1565b9250508190555034600560008282546110b49190611ca1565b925050819055506005546004546110cb9190611bff565b600a81905550600080600b54146110fc57600554600b54346110ed9190611bff565b6110f79190611c70565b6110fe565b345b905080600b60008282546111129190611ca1565b9250508190555080600c60003373ffffffffffffffffffffffffffffffffffffffff1673ffffffffffffffffffffffffffffffffffffffff16815260200190815260200160002060008282546111689190611ca1565b925050819055506000600660003373ffffffffffffffffffffffffffffffffffffffff1673ffffffffffffffffffffffffffffffffffffffff168152602001908152602001600020540361121a576007339080600181540180825580915050600190039060005260206000200160009091909190916101000a81548173ffffffffffffffffffffffffffffffffffffffff021916908373ffffffffffffffffffffffffffffffffffffffff1602179055505b34600660003373ffffffffffffffffffffffffffffffffffffffff1673ffffffffffffffffffffffffffffffffffffffff16815260200190815260200160002060008282546112699190611ca1565b925050819055505050505050565b600082116112ba576040517f08c379a00000000000000000000000000000000000000000000000000000000081526004016112b190611b10565b60405180910390fd5b60006112c4611621565b905081811115611309576040517f08c379a00000000000000000000000000000000000000000000000000000000081526004016113009061221a565b60405180910390fd5b600060095460085460095461131e9190611bcb565b856113299190611bff565b6113339190611c70565b90506000816004546113459190611ca1565b600554836113539190611bff565b61135d9190611c70565b905060018160055461136f9190611bcb565b10156113b0576040517f08c379a00000000000000000000000000000000000000000000000000000000081526004016113a7906121ae565b60405180910390fd5b600360009054906101000a900473ffffffffffffffffffffffffffffffffffffffff1673ffffffffffffffffffffffffffffffffffffffff166323b872dd3330886040518463ffffffff1660e01b815260040161140f939291906120bf565b6020604051808303816000875af115801561142e573d6000803e3d6000fd5b505050506040513d601f19601f820116820180604052508101906114529190611da2565b503373ffffffffffffffffffffffffffffffffffffffff166108fc829081150290604051600060405180830381858888f19350505050158015611499573d6000803e3d6000fd5b5084600460008282546114ac9190611ca1565b9250508190555080600560008282546114c59190611bcb565b925050819055505050505050565b600b5481565b600080600854600954915091509091565b6114f261164b565b600073ffffffffffffffffffffffffffffffffffffffff168173ffffffffffffffffffffffffffffffffffffffff1603611561576040517f08c379a0000000000000000000000000000000000000000000000000000000008152600401611558906124f1565b60405180910390fd5b61156a816116c9565b50565b6001805461157a90612540565b80601f01602080910402602001604051908101604052809291908181526020018280546115a690612540565b80156115f35780601f106115c8576101008083540402835291602001916115f3565b820191906000526020600020905b8154815290600101906020018083116115d657829003601f168201915b505050505081565b600360009054906101000a900473ffffffffffffffffffffffffffffffffffffffff1681565b6000600554670de0b6b3a764000060045461163c9190611bff565b6116469190611c70565b905090565b61165361178d565b73ffffffffffffffffffffffffffffffffffffffff16611671610cef565b73ffffffffffffffffffffffffffffffffffffffff16146116c7576040517f08c379a00000000000000000000000000000000000000000000000000000000081526004016116be906125bd565b60405180910390fd5b565b60008060009054906101000a900473ffffffffffffffffffffffffffffffffffffffff169050816000806101000a81548173ffffffffffffffffffffffffffffffffffffffff021916908373ffffffffffffffffffffffffffffffffffffffff1602179055508173ffffffffffffffffffffffffffffffffffffffff168173ffffffffffffffffffffffffffffffffffffffff167f8be0079c531659141344cd1fd0a4f28419497f9722a3daafe3b4186f6b6457e060405160405180910390a35050565b600033905090565b600080fd5b600073ffffffffffffffffffffffffffffffffffffffff82169050919050565b60006117c58261179a565b9050919050565b6117d5816117ba565b81146117e057600080fd5b50565b6000813590506117f2816117cc565b92915050565b60006020828403121561180e5761180d611795565b5b600061181c848285016117e3565b91505092915050565b6000819050919050565b61183881611825565b82525050565b6000602082019050611853600083018461182f565b92915050565b61186281611825565b811461186d57600080fd5b50565b60008135905061187f81611859565b92915050565b60006020828403121561189b5761189a611795565b5b60006118a984828501611870565b91505092915050565b600080604083850312156118c9576118c8611795565b5b60006118d785828601611870565b92505060206118e885828601611870565b9150509250929050565b60008060006060848603121561190b5761190a611795565b5b600061191986828701611870565b935050602061192a86828701611870565b925050604061193b86828701611870565b9150509250925092565b61194e816117ba565b82525050565b60006020820190506119696000830184611945565b92915050565b6000604082019050611984600083018561182f565b611991602083018461182f565b9392505050565b600081519050919050565b600082825260208201905092915050565b60005b838110156119d25780820151818401526020810190506119b7565b60008484015250505050565b6000601f19601f8301169050919050565b60006119fa82611998565b611a0481856119a3565b9350611a148185602086016119b4565b611a1d816119de565b840191505092915050565b60006020820190508181036000830152611a4281846119ef565b905092915050565b6000819050919050565b6000611a6f611a6a611a658461179a565b611a4a565b61179a565b9050919050565b6000611a8182611a54565b9050919050565b6000611a9382611a76565b9050919050565b611aa381611a88565b82525050565b6000602082019050611abe6000830184611a9a565b92915050565b7f5a65726f20616d6f756e74000000000000000000000000000000000000000000600082015250565b6000611afa600b836119a3565b9150611b0582611ac4565b602082019050919050565b60006020820190508181036000830152611b2981611aed565b9050919050565b7f536c69707061676520286d696e20726174652900000000000000000000000000600082015250565b6000611b666013836119a3565b9150611b7182611b30565b602082019050919050565b60006020820190508181036000830152611b9581611b59565b9050919050565b7f4e487b7100000000000000000000000000000000000000000000000000000000600052601160045260246000fd5b6000611bd682611825565b9150611be183611825565b9250828203905081811115611bf957611bf8611b9c565b5b92915050565b6000611c0a82611825565b9150611c1583611825565b9250828202611c2381611825565b91508282048414831517611c3a57611c39611b9c565b5b5092915050565b7f4e487b7100000000000000000000000000000000000000000000000000000000600052601260045260246000fd5b6000611c7b82611825565b9150611c8683611825565b925082611c9657611c95611c41565b5b828204905092915050565b6000611cac82611825565b9150611cb783611825565b9250828201905080821115611ccf57611cce611b9c565b5b92915050565b7f447261696e20544f4b0000000000000000000000000000000000000000000000600082015250565b6000611d0b6009836119a3565b9150611d1682611cd5565b602082019050919050565b60006020820190508181036000830152611d3a81611cfe565b9050919050565b6000604082019050611d566000830185611945565b611d63602083018461182f565b9392505050565b60008115159050919050565b611d7f81611d6a565b8114611d8a57600080fd5b50565b600081519050611d9c81611d76565b92915050565b600060208284031215611db857611db7611795565b5b6000611dc684828501611d8d565b91505092915050565b7f4e6f7468696e6720746f20776974686472617700000000000000000000000000600082015250565b6000611e056013836119a3565b9150611e1082611dcf565b602082019050919050565b60006020820190508181036000830152611e3481611df8565b9050919050565b7f546f6b656e20726573657276657320776173206e6f7420300000000000000000600082015250565b6000611e716018836119a3565b9150611e7c82611e3b565b602082019050919050565b60006020820190508181036000830152611ea081611e64565b9050919050565b7f45544820726573657276657320776173206e6f7420302e000000000000000000600082015250565b6000611edd6017836119a3565b9150611ee882611ea7565b602082019050919050565b60006020820190508181036000830152611f0c81611ed0565b9050919050565b7f4e6565642065746820746f2063726561746520706f6f6c2e0000000000000000600082015250565b6000611f496018836119a3565b9150611f5482611f13565b602082019050919050565b60006020820190508181036000830152611f7881611f3c565b9050919050565b600081519050611f8e81611859565b92915050565b600060208284031215611faa57611fa9611795565b5b6000611fb884828501611f7f565b91505092915050565b7f4e6f74206861766520656e6f75676820746f6b656e7320746f2063726561746560008201527f2074686520706f6f6c0000000000000000000000000000000000000000000000602082015250565b600061201d6029836119a3565b915061202882611fc1565b604082019050919050565b6000602082019050818103600083015261204c81612010565b9050919050565b7f4e65656420746f6b656e7320746f2063726561746520706f6f6c2e0000000000600082015250565b6000612089601b836119a3565b915061209482612053565b602082019050919050565b600060208201905081810360008301526120b88161207c565b9050919050565b60006060820190506120d46000830186611945565b6120e16020830185611945565b6120ee604083018461182f565b949350505050565b7f4e6f7420656e6f756768204c5000000000000000000000000000000000000000600082015250565b600061212c600d836119a3565b9150612137826120f6565b602082019050919050565b6000602082019050818103600083015261215b8161211f565b9050919050565b7f447261696e204554480000000000000000000000000000000000000000000000600082015250565b60006121986009836119a3565b91506121a382612162565b602082019050919050565b600060208201905081810360008301526121c78161218b565b9050919050565b7f536c697070616765000000000000000000000000000000000000000000000000600082015250565b60006122046008836119a3565b915061220f826121ce565b602082019050919050565b60006020820190508181036000830152612233816121f7565b9050919050565b7f447261696e20746f6b656e000000000000000000000000000000000000000000600082015250565b6000612270600b836119a3565b915061227b8261223a565b602082019050919050565b6000602082019050818103600083015261229f81612263565b9050919050565b7f4e4f204554482073656e74000000000000000000000000000000000000000000600082015250565b60006122dc600b836119a3565b91506122e7826122a6565b602082019050919050565b6000602082019050818103600083015261230b816122cf565b9050919050565b7f506f6f6c206973206e6f7420696e697469616c69736564000000000000000000600082015250565b60006123486017836119a3565b915061235382612312565b602082019050919050565b600060208201905081810360008301526123778161233b565b9050919050565b60006040820190506123936000830185611945565b6123a06020830184611945565b9392505050565b7f417070726f766520746f6b656e73206669727374000000000000000000000000600082015250565b60006123dd6014836119a3565b91506123e8826123a7565b602082019050919050565b6000602082019050818103600083015261240c816123d0565b9050919050565b7f4e6f7420656e6f75676820746f6b656e73000000000000000000000000000000600082015250565b60006124496011836119a3565b915061245482612413565b602082019050919050565b600060208201905081810360008301526124788161243c565b9050919050565b7f4f776e61626c653a206e6577206f776e657220697320746865207a65726f206160008201527f6464726573730000000000000000000000000000000000000000000000000000602082015250565b60006124db6026836119a3565b91506124e68261247f565b604082019050919050565b6000602082019050818103600083015261250a816124ce565b9050919050565b7f4e487b7100000000000000000000000000000000000000000000000000000000600052602260045260246000fd5b6000600282049050600182168061255857607f821691505b60208210810361256b5761256a612511565b5b50919050565b7f4f776e61626c653a2063616c6c6572206973206e6f7420746865206f776e6572600082015250565b60006125a76020836119a3565b91506125b282612571565b602082019050919050565b600060208201905081810360008301526125d68161259a565b905091905056fea26469706673582212208500a2c4c49356a2c13526fd1fb6d45cc4f624959f6edd4a19b57113f8e3cf0464736f6c63430008110033",
  "linkReferences": {},
  "deployedLinkReferences": {}
}