{
  "_format": "hh-sol-artifact-1",
  "contractName": "TokenExchange",
  "sourceName": "contracts/exchange.sol",
  "abi": [
    {
      "inputs": [],
      "stateMutability": "nonpayable",
      "type": "constructor"
    },
    {
      "anonymous": false,
      "inputs": [
        {
          "indexed": true,
          "internalType": "address",
          "name": "previousOwner",
          "type": "address"
        },
        {
          "indexed": true,
          "internalType": "address",
          "name": "newOwner",
          "type": "address"
        }
      ],
      "name": "OwnershipTransferred",
      "type": "event"
    },
    {
      "inputs": [
        {
          "internalType": "uint256",
          "name": "max_exchange_rate",
          "type": "uint256"
        },
        {
          "internalType": "uint256",
          "name": "min_exchange_rate",
          "type": "uint256"
        }
      ],
      "name": "addLiquidity",
      "outputs": [],
      "stateMutability": "payable",
      "type": "function"
    },
    {
      "inputs": [
        {
          "internalType": "uint256",
          "name": "amountTokens",
          "type": "uint256"
        }
      ],
      "name": "createPool",
      "outputs": [],
      "stateMutability": "payable",
      "type": "function"
    },
    {
      "inputs": [],
      "name": "exchange_name",
      "outputs": [
        {
          "internalType": "string",
          "name": "",
          "type": "string"
        }
      ],
      "stateMutability": "view",
      "type": "function"
    },
    {
      "inputs": [],
      "name": "getSwapFee",
      "outputs": [
        {
          "internalType": "uint256",
          "name": "",
          "type": "uint256"
        },
        {
          "internalType": "uint256",
          "name": "",
          "type": "uint256"
        }
      ],
      "stateMutability": "view",
      "type": "function"
    },
    {
      "inputs": [
        {
          "internalType": "address",
          "name": "",
          "type": "address"
        }
      ],
      "name": "lpBalances",
      "outputs": [
        {
          "internalType": "uint256",
          "name": "",
          "type": "uint256"
        }
      ],
      "stateMutability": "view",
      "type": "function"
    },
    {
      "inputs": [
        {
          "internalType": "address",
          "name": "who",
          "type": "address"
        }
      ],
      "name": "lpOf",
      "outputs": [
        {
          "internalType": "uint256",
          "name": "",
          "type": "uint256"
        }
      ],
      "stateMutability": "view",
      "type": "function"
    },
    {
      "inputs": [
        {
          "internalType": "address",
          "name": "",
          "type": "address"
        }
      ],
      "name": "lps",
      "outputs": [
        {
          "internalType": "uint256",
          "name": "",
          "type": "uint256"
        }
      ],
      "stateMutability": "view",
      "type": "function"
    },
    {
      "inputs": [],
      "name": "owner",
      "outputs": [
        {
          "internalType": "address",
          "name": "",
          "type": "address"
        }
      ],
      "stateMutability": "view",
      "type": "function"
    },
    {
      "inputs": [
        {
          "internalType": "uint256",
          "name": "maxRate",
          "type": "uint256"
        },
        {
          "internalType": "uint256",
          "name": "minRate",
          "type": "uint256"
        }
      ],
      "name": "removeAllLiquidity",
      "outputs": [],
      "stateMutability": "payable",
      "type": "function"
    },
    {
      "inputs": [
        {
          "internalType": "uint256",
          "name": "ethOut",
          "type": "uint256"
        },
        {
          "internalType": "uint256",
          "name": "maxRate",
          "type": "uint256"
        },
        {
          "internalType": "uint256",
          "name": "minRate",
          "type": "uint256"
        }
      ],
      "name": "removeLiquidity",
      "outputs": [],
      "stateMutability": "payable",
      "type": "function"
    },
    {
      "inputs": [],
      "name": "renounceOwnership",
      "outputs": [],
      "stateMutability": "nonpayable",
      "type": "function"
    },
    {
      "inputs": [
        {
          "internalType": "uint256",
          "name": "maxRate",
          "type": "uint256"
        }
      ],
      "name": "swapETHForTokens",
      "outputs": [],
      "stateMutability": "payable",
      "type": "function"
    },
    {
      "inputs": [
        {
          "internalType": "uint256",
          "name": "amountTok",
          "type": "uint256"
        },
        {
          "internalType": "uint256",
          "name": "maxRate",
          "type": "uint256"
        }
      ],
      "name": "swapTokensForETH",
      "outputs": [],
      "stateMutability": "payable",
      "type": "function"
    },
    {
      "inputs": [],
      "name": "token",
      "outputs": [
        {
          "internalType": "contract Token",
          "name": "",
          "type": "address"
        }
      ],
      "stateMutability": "view",
      "type": "function"
    },
    {
      "inputs": [],
      "name": "totalLPSupply",
      "outputs": [
        {
          "internalType": "uint256",
          "name": "",
          "type": "uint256"
        }
      ],
      "stateMutability": "view",
      "type": "function"
    },
    {
      "inputs": [
        {
          "internalType": "address",
          "name": "newOwner",
          "type": "address"
        }
      ],
      "name": "transferOwnership",
      "outputs": [],
      "stateMutability": "nonpayable",
      "type": "function"
    }
  ],
  "bytecode": "0x60806040526040518060400160405280600381526020017f4741590000000000000000000000000000000000000000000000000000000000815250600190816200004a919062000491565b50735fbdb2315678afecb367f032d93f642f64180aa3600260006101000a81548173ffffffffffffffffffffffffffffffffffffffff021916908373ffffffffffffffffffffffffffffffffffffffff160217905550600260009054906101000a900473ffffffffffffffffffffffffffffffffffffffff16600360006101000a81548173ffffffffffffffffffffffffffffffffffffffff021916908373ffffffffffffffffffffffffffffffffffffffff16021790555060006004556000600555600360085560646009553480156200012457600080fd5b5062000145620001396200014b60201b60201c565b6200015360201b60201c565b62000578565b600033905090565b60008060009054906101000a900473ffffffffffffffffffffffffffffffffffffffff169050816000806101000a81548173ffffffffffffffffffffffffffffffffffffffff021916908373ffffffffffffffffffffffffffffffffffffffff1602179055508173ffffffffffffffffffffffffffffffffffffffff168173ffffffffffffffffffffffffffffffffffffffff167f8be0079c531659141344cd1fd0a4f28419497f9722a3daafe3b4186f6b6457e060405160405180910390a35050565b600081519050919050565b7f4e487b7100000000000000000000000000000000000000000000000000000000600052604160045260246000fd5b7f4e487b7100000000000000000000000000000000000000000000000000000000600052602260045260246000fd5b600060028204905060018216806200029957607f821691505b602082108103620002af57620002ae62000251565b5b50919050565b60008190508160005260206000209050919050565b60006020601f8301049050919050565b600082821b905092915050565b600060088302620003197fffffffffffffffffffffffffffffffffffffffffffffffffffffffffffffffff82620002da565b620003258683620002da565b95508019841693508086168417925050509392505050565b6000819050919050565b6000819050919050565b6000620003726200036c62000366846200033d565b62000347565b6200033d565b9050919050565b6000819050919050565b6200038e8362000351565b620003a66200039d8262000379565b848454620002e7565b825550505050565b600090565b620003bd620003ae565b620003ca81848462000383565b505050565b5b81811015620003f257620003e6600082620003b3565b600181019050620003d0565b5050565b601f82111562000441576200040b81620002b5565b6200041684620002ca565b8101602085101562000426578190505b6200043e6200043585620002ca565b830182620003cf565b50505b505050565b600082821c905092915050565b6000620004666000198460080262000446565b1980831691505092915050565b600062000481838362000453565b9150826002028217905092915050565b6200049c8262000217565b67ffffffffffffffff811115620004b857620004b762000222565b5b620004c4825462000280565b620004d1828285620003f6565b600060209050601f831160018114620005095760008415620004f4578287015190505b62000500858262000473565b86555062000570565b601f1984166200051986620002b5565b60005b8281101562000543578489015182556001820191506020850194506020810190506200051c565b868310156200056357848901516200055f601f89168262000453565b8355505b6001600288020188555050505b505050505050565b61270480620005886000396000f3fe6080604052600436106100f35760003560e01c8063a22280a61161008a578063ec0047ef11610059578063ec0047ef146102b3578063f2fde38b146102f0578063f694f7d114610319578063fc0c546a14610344576100f3565b8063a22280a614610203578063d12e73321461021f578063d1a867111461025c578063d4cadf6814610287576100f3565b80638259e6a0116100c65780638259e6a014610184578063857620e1146101a05780638da5cb5b146101bc5780639cd441da146101e7576100f3565b80630b65092d146100f85780632eab28411461013557806358ad6de414610151578063715018a61461016d575b600080fd5b34801561010457600080fd5b5061011f600480360381019061011a91906118e9565b61036f565b60405161012c919061192f565b60405180910390f35b61014f600480360381019061014a9190611976565b610387565b005b61016b600480360381019061016691906119a3565b61059f565b005b34801561017957600080fd5b50610182610636565b005b61019e60048036038101906101999190611976565b61064a565b005b6101ba60048036038101906101b591906119e3565b610a54565b005b3480156101c857600080fd5b506101d1610d7f565b6040516101de9190611a45565b60405180910390f35b61020160048036038101906101fc91906119a3565b610da8565b005b61021d600480360381019061021891906119a3565b611307565b005b34801561022b57600080fd5b50610246600480360381019061024191906118e9565b611563565b604051610253919061192f565b60405180910390f35b34801561026857600080fd5b5061027161157b565b60405161027e919061192f565b60405180910390f35b34801561029357600080fd5b5061029c611581565b6040516102aa929190611a60565b60405180910390f35b3480156102bf57600080fd5b506102da60048036038101906102d591906118e9565b611592565b6040516102e7919061192f565b60405180910390f35b3480156102fc57600080fd5b50610317600480360381019061031291906118e9565b6115db565b005b34801561032557600080fd5b5061032e61165e565b60405161033b9190611b19565b60405180910390f35b34801561035057600080fd5b506103596116ec565b6040516103669190611b9a565b60405180910390f35b600c6020528060005260406000206000915090505481565b6000349050600081116103cf576040517f08c379a00000000000000000000000000000000000000000000000000000000081526004016103c690611c01565b60405180910390fd5b60006103d9611712565b90508281101561041e576040517f08c379a000000000000000000000000000000000000000000000000000000000815260040161041590611c6d565b60405180910390fd5b60006009546008546009546104339190611cbc565b8461043e9190611cf0565b6104489190611d61565b905060008160055461045a9190611d92565b600454836104689190611cf0565b6104729190611d61565b90506001816004546104849190611cbc565b10156104c5576040517f08c379a00000000000000000000000000000000000000000000000000000000081526004016104bc90611e12565b60405180910390fd5b600360009054906101000a900473ffffffffffffffffffffffffffffffffffffffff1673ffffffffffffffffffffffffffffffffffffffff1663a9059cbb33836040518363ffffffff1660e01b8152600401610522929190611e32565b6020604051808303816000875af1158015610541573d6000803e3d6000fd5b505050506040513d601f19601f820116820180604052508101906105659190611e93565b5083600560008282546105789190611d92565b9250508190555080600460008282546105919190611cbc565b925050819055505050505050565b6000600660003373ffffffffffffffffffffffffffffffffffffffff1673ffffffffffffffffffffffffffffffffffffffff16815260200190815260200160002054905060008111610626576040517f08c379a000000000000000000000000000000000000000000000000000000000815260040161061d90611f0c565b60405180910390fd5b610631818484610a54565b505050565b61063e61173c565b61064860006117ba565b565b61065261173c565b600060045414610697576040517f08c379a000000000000000000000000000000000000000000000000000000000815260040161068e90611f78565b60405180910390fd5b6000600554146106dc576040517f08c379a00000000000000000000000000000000000000000000000000000000081526004016106d390611fe4565b60405180910390fd5b6000341161071f576040517f08c379a000000000000000000000000000000000000000000000000000000000815260040161071690612050565b60405180910390fd5b6000600360009054906101000a900473ffffffffffffffffffffffffffffffffffffffff1673ffffffffffffffffffffffffffffffffffffffff166370a08231336040518263ffffffff1660e01b815260040161077c9190611a45565b602060405180830381865afa158015610799573d6000803e3d6000fd5b505050506040513d601f19601f820116820180604052508101906107bd9190612085565b905080821115610802576040517f08c379a00000000000000000000000000000000000000000000000000000000081526004016107f990612124565b60405180910390fd5b60008211610845576040517f08c379a000000000000000000000000000000000000000000000000000000000815260040161083c90612190565b60405180910390fd5b600360009054906101000a900473ffffffffffffffffffffffffffffffffffffffff1673ffffffffffffffffffffffffffffffffffffffff166323b872dd3330856040518463ffffffff1660e01b81526004016108a4939291906121b0565b6020604051808303816000875af11580156108c3573d6000803e3d6000fd5b505050506040513d601f19601f820116820180604052508101906108e79190611e93565b50600360009054906101000a900473ffffffffffffffffffffffffffffffffffffffff1673ffffffffffffffffffffffffffffffffffffffff166370a08231306040518263ffffffff1660e01b81526004016109439190611a45565b602060405180830381865afa158015610960573d6000803e3d6000fd5b505050506040513d601f19601f820116820180604052508101906109849190612085565b600481905550346005819055506005546004546109a19190611cf0565b600a81905550600b54600c60003373ffffffffffffffffffffffffffffffffffffffff1673ffffffffffffffffffffffffffffffffffffffff168152602001908152602001600020819055506007339080600181540180825580915050600190039060005260206000200160009091909190916101000a81548173ffffffffffffffffffffffffffffffffffffffff021916908373ffffffffffffffffffffffffffffffffffffffff1602179055505050565b82600660003373ffffffffffffffffffffffffffffffffffffffff1673ffffffffffffffffffffffffffffffffffffffff168152602001908152602001600020541015610ad6576040517f08c379a0000000000000000000000000000000000000000000000000000000008152600401610acd90612233565b60405180910390fd5b600183600554610ae69190611cbc565b1015610b27576040517f08c379a0000000000000000000000000000000000000000000000000000000008152600401610b1e9061229f565b60405180910390fd5b6000610b31611712565b9050828111158015610b435750818110155b610b82576040517f08c379a0000000000000000000000000000000000000000000000000000000008152600401610b799061230b565b60405180910390fd5b600060055460045486610b959190611cf0565b610b9f9190611d61565b9050600181600454610bb19190611cbc565b1015610bf2576040517f08c379a0000000000000000000000000000000000000000000000000000000008152600401610be990612377565b60405180910390fd5b84600660003373ffffffffffffffffffffffffffffffffffffffff1673ffffffffffffffffffffffffffffffffffffffff1681526020019081526020016000206000828254610c419190611cbc565b925050819055508460056000828254610c5a9190611cbc565b925050819055508060046000828254610c739190611cbc565b92505081905550600454600554610c8a9190611cf0565b600a819055503373ffffffffffffffffffffffffffffffffffffffff166108fc869081150290604051600060405180830381858888f19350505050158015610cd6573d6000803e3d6000fd5b50600360009054906101000a900473ffffffffffffffffffffffffffffffffffffffff1673ffffffffffffffffffffffffffffffffffffffff1663a9059cbb33836040518363ffffffff1660e01b8152600401610d34929190611e32565b6020604051808303816000875af1158015610d53573d6000803e3d6000fd5b505050506040513d601f19601f82011682018060405250810190610d779190611e93565b505050505050565b60008060009054906101000a900473ffffffffffffffffffffffffffffffffffffffff16905090565b60003411610deb576040517f08c379a0000000000000000000000000000000000000000000000000000000008152600401610de2906123e3565b60405180910390fd5b6000600454118015610dff57506000600554115b610e3e576040517f08c379a0000000000000000000000000000000000000000000000000000000008152600401610e359061244f565b60405180910390fd5b6000610e48611712565b9050828111158015610e5a5750818110155b610e99576040517f08c379a0000000000000000000000000000000000000000000000000000000008152600401610e909061230b565b60405180910390fd5b600060055460045434610eac9190611cf0565b610eb69190611d61565b905080600360009054906101000a900473ffffffffffffffffffffffffffffffffffffffff1673ffffffffffffffffffffffffffffffffffffffff1663dd62ed3e33306040518363ffffffff1660e01b8152600401610f1692919061246f565b602060405180830381865afa158015610f33573d6000803e3d6000fd5b505050506040513d601f19601f82011682018060405250810190610f579190612085565b1015610f98576040517f08c379a0000000000000000000000000000000000000000000000000000000008152600401610f8f906124e4565b60405180910390fd5b80600360009054906101000a900473ffffffffffffffffffffffffffffffffffffffff1673ffffffffffffffffffffffffffffffffffffffff166370a08231336040518263ffffffff1660e01b8152600401610ff49190611a45565b602060405180830381865afa158015611011573d6000803e3d6000fd5b505050506040513d601f19601f820116820180604052508101906110359190612085565b1015611076576040517f08c379a000000000000000000000000000000000000000000000000000000000815260040161106d90612550565b60405180910390fd5b600360009054906101000a900473ffffffffffffffffffffffffffffffffffffffff1673ffffffffffffffffffffffffffffffffffffffff166323b872dd3330846040518463ffffffff1660e01b81526004016110d5939291906121b0565b6020604051808303816000875af11580156110f4573d6000803e3d6000fd5b505050506040513d601f19601f820116820180604052508101906111189190611e93565b50806004600082825461112b9190611d92565b9250508190555034600560008282546111449190611d92565b9250508190555060055460045461115b9190611cf0565b600a81905550600080600b541461118c57600554600b543461117d9190611cf0565b6111879190611d61565b61118e565b345b905080600b60008282546111a29190611d92565b9250508190555080600c60003373ffffffffffffffffffffffffffffffffffffffff1673ffffffffffffffffffffffffffffffffffffffff16815260200190815260200160002060008282546111f89190611d92565b925050819055506000600660003373ffffffffffffffffffffffffffffffffffffffff1673ffffffffffffffffffffffffffffffffffffffff16815260200190815260200160002054036112aa576007339080600181540180825580915050600190039060005260206000200160009091909190916101000a81548173ffffffffffffffffffffffffffffffffffffffff021916908373ffffffffffffffffffffffffffffffffffffffff1602179055505b34600660003373ffffffffffffffffffffffffffffffffffffffff1673ffffffffffffffffffffffffffffffffffffffff16815260200190815260200160002060008282546112f99190611d92565b925050819055505050505050565b6000821161134a576040517f08c379a000000000000000000000000000000000000000000000000000000000815260040161134190611c01565b60405180910390fd5b6000611354611712565b905081811115611399576040517f08c379a00000000000000000000000000000000000000000000000000000000081526004016113909061230b565b60405180910390fd5b60006009546008546009546113ae9190611cbc565b856113b99190611cf0565b6113c39190611d61565b90506000816004546113d59190611d92565b600554836113e39190611cf0565b6113ed9190611d61565b90506001816005546113ff9190611cbc565b1015611440576040517f08c379a00000000000000000000000000000000000000000000000000000000081526004016114379061229f565b60405180910390fd5b600360009054906101000a900473ffffffffffffffffffffffffffffffffffffffff1673ffffffffffffffffffffffffffffffffffffffff166323b872dd3330886040518463ffffffff1660e01b815260040161149f939291906121b0565b6020604051808303816000875af11580156114be573d6000803e3d6000fd5b505050506040513d601f19601f820116820180604052508101906114e29190611e93565b503373ffffffffffffffffffffffffffffffffffffffff166108fc829081150290604051600060405180830381858888f19350505050158015611529573d6000803e3d6000fd5b50846004600082825461153c9190611d92565b9250508190555080600560008282546115559190611cbc565b925050819055505050505050565b60066020528060005260406000206000915090505481565b600b5481565b600080600854600954915091509091565b6000600660008373ffffffffffffffffffffffffffffffffffffffff1673ffffffffffffffffffffffffffffffffffffffff168152602001908152602001600020549050919050565b6115e361173c565b600073ffffffffffffffffffffffffffffffffffffffff168173ffffffffffffffffffffffffffffffffffffffff1603611652576040517f08c379a0000000000000000000000000000000000000000000000000000000008152600401611649906125e2565b60405180910390fd5b61165b816117ba565b50565b6001805461166b90612631565b80601f016020809104026020016040519081016040528092919081815260200182805461169790612631565b80156116e45780601f106116b9576101008083540402835291602001916116e4565b820191906000526020600020905b8154815290600101906020018083116116c757829003601f168201915b505050505081565b600360009054906101000a900473ffffffffffffffffffffffffffffffffffffffff1681565b6000600554670de0b6b3a764000060045461172d9190611cf0565b6117379190611d61565b905090565b61174461187e565b73ffffffffffffffffffffffffffffffffffffffff16611762610d7f565b73ffffffffffffffffffffffffffffffffffffffff16146117b8576040517f08c379a00000000000000000000000000000000000000000000000000000000081526004016117af906126ae565b60405180910390fd5b565b60008060009054906101000a900473ffffffffffffffffffffffffffffffffffffffff169050816000806101000a81548173ffffffffffffffffffffffffffffffffffffffff021916908373ffffffffffffffffffffffffffffffffffffffff1602179055508173ffffffffffffffffffffffffffffffffffffffff168173ffffffffffffffffffffffffffffffffffffffff167f8be0079c531659141344cd1fd0a4f28419497f9722a3daafe3b4186f6b6457e060405160405180910390a35050565b600033905090565b600080fd5b600073ffffffffffffffffffffffffffffffffffffffff82169050919050565b60006118b68261188b565b9050919050565b6118c6816118ab565b81146118d157600080fd5b50565b6000813590506118e3816118bd565b92915050565b6000602082840312156118ff576118fe611886565b5b600061190d848285016118d4565b91505092915050565b6000819050919050565b61192981611916565b82525050565b60006020820190506119446000830184611920565b92915050565b61195381611916565b811461195e57600080fd5b50565b6000813590506119708161194a565b92915050565b60006020828403121561198c5761198b611886565b5b600061199a84828501611961565b91505092915050565b600080604083850312156119ba576119b9611886565b5b60006119c885828601611961565b92505060206119d985828601611961565b9150509250929050565b6000806000606084860312156119fc576119fb611886565b5b6000611a0a86828701611961565b9350506020611a1b86828701611961565b9250506040611a2c86828701611961565b9150509250925092565b611a3f816118ab565b82525050565b6000602082019050611a5a6000830184611a36565b92915050565b6000604082019050611a756000830185611920565b611a826020830184611920565b9392505050565b600081519050919050565b600082825260208201905092915050565b60005b83811015611ac3578082015181840152602081019050611aa8565b60008484015250505050565b6000601f19601f8301169050919050565b6000611aeb82611a89565b611af58185611a94565b9350611b05818560208601611aa5565b611b0e81611acf565b840191505092915050565b60006020820190508181036000830152611b338184611ae0565b905092915050565b6000819050919050565b6000611b60611b5b611b568461188b565b611b3b565b61188b565b9050919050565b6000611b7282611b45565b9050919050565b6000611b8482611b67565b9050919050565b611b9481611b79565b82525050565b6000602082019050611baf6000830184611b8b565b92915050565b7f5a65726f20616d6f756e74000000000000000000000000000000000000000000600082015250565b6000611beb600b83611a94565b9150611bf682611bb5565b602082019050919050565b60006020820190508181036000830152611c1a81611bde565b9050919050565b7f536c69707061676520286d696e20726174652900000000000000000000000000600082015250565b6000611c57601383611a94565b9150611c6282611c21565b602082019050919050565b60006020820190508181036000830152611c8681611c4a565b9050919050565b7f4e487b7100000000000000000000000000000000000000000000000000000000600052601160045260246000fd5b6000611cc782611916565b9150611cd283611916565b9250828203905081811115611cea57611ce9611c8d565b5b92915050565b6000611cfb82611916565b9150611d0683611916565b9250828202611d1481611916565b91508282048414831517611d2b57611d2a611c8d565b5b5092915050565b7f4e487b7100000000000000000000000000000000000000000000000000000000600052601260045260246000fd5b6000611d6c82611916565b9150611d7783611916565b925082611d8757611d86611d32565b5b828204905092915050565b6000611d9d82611916565b9150611da883611916565b9250828201905080821115611dc057611dbf611c8d565b5b92915050565b7f447261696e20544f4b0000000000000000000000000000000000000000000000600082015250565b6000611dfc600983611a94565b9150611e0782611dc6565b602082019050919050565b60006020820190508181036000830152611e2b81611def565b9050919050565b6000604082019050611e476000830185611a36565b611e546020830184611920565b9392505050565b60008115159050919050565b611e7081611e5b565b8114611e7b57600080fd5b50565b600081519050611e8d81611e67565b92915050565b600060208284031215611ea957611ea8611886565b5b6000611eb784828501611e7e565b91505092915050565b7f4e6f7468696e6720746f20776974686472617700000000000000000000000000600082015250565b6000611ef6601383611a94565b9150611f0182611ec0565b602082019050919050565b60006020820190508181036000830152611f2581611ee9565b9050919050565b7f546f6b656e20726573657276657320776173206e6f7420300000000000000000600082015250565b6000611f62601883611a94565b9150611f6d82611f2c565b602082019050919050565b60006020820190508181036000830152611f9181611f55565b9050919050565b7f45544820726573657276657320776173206e6f7420302e000000000000000000600082015250565b6000611fce601783611a94565b9150611fd982611f98565b602082019050919050565b60006020820190508181036000830152611ffd81611fc1565b9050919050565b7f4e6565642065746820746f2063726561746520706f6f6c2e0000000000000000600082015250565b600061203a601883611a94565b915061204582612004565b602082019050919050565b600060208201905081810360008301526120698161202d565b9050919050565b60008151905061207f8161194a565b92915050565b60006020828403121561209b5761209a611886565b5b60006120a984828501612070565b91505092915050565b7f4e6f74206861766520656e6f75676820746f6b656e7320746f2063726561746560008201527f2074686520706f6f6c0000000000000000000000000000000000000000000000602082015250565b600061210e602983611a94565b9150612119826120b2565b604082019050919050565b6000602082019050818103600083015261213d81612101565b9050919050565b7f4e65656420746f6b656e7320746f2063726561746520706f6f6c2e0000000000600082015250565b600061217a601b83611a94565b915061218582612144565b602082019050919050565b600060208201905081810360008301526121a98161216d565b9050919050565b60006060820190506121c56000830186611a36565b6121d26020830185611a36565b6121df6040830184611920565b949350505050565b7f4e6f7420656e6f756768204c5000000000000000000000000000000000000000600082015250565b600061221d600d83611a94565b9150612228826121e7565b602082019050919050565b6000602082019050818103600083015261224c81612210565b9050919050565b7f447261696e204554480000000000000000000000000000000000000000000000600082015250565b6000612289600983611a94565b915061229482612253565b602082019050919050565b600060208201905081810360008301526122b88161227c565b9050919050565b7f536c697070616765000000000000000000000000000000000000000000000000600082015250565b60006122f5600883611a94565b9150612300826122bf565b602082019050919050565b60006020820190508181036000830152612324816122e8565b9050919050565b7f447261696e20746f6b656e000000000000000000000000000000000000000000600082015250565b6000612361600b83611a94565b915061236c8261232b565b602082019050919050565b6000602082019050818103600083015261239081612354565b9050919050565b7f4e4f204554482073656e74000000000000000000000000000000000000000000600082015250565b60006123cd600b83611a94565b91506123d882612397565b602082019050919050565b600060208201905081810360008301526123fc816123c0565b9050919050565b7f506f6f6c206973206e6f7420696e697469616c69736564000000000000000000600082015250565b6000612439601783611a94565b915061244482612403565b602082019050919050565b600060208201905081810360008301526124688161242c565b9050919050565b60006040820190506124846000830185611a36565b6124916020830184611a36565b9392505050565b7f417070726f766520746f6b656e73206669727374000000000000000000000000600082015250565b60006124ce601483611a94565b91506124d982612498565b602082019050919050565b600060208201905081810360008301526124fd816124c1565b9050919050565b7f4e6f7420656e6f75676820746f6b656e73000000000000000000000000000000600082015250565b600061253a601183611a94565b915061254582612504565b602082019050919050565b600060208201905081810360008301526125698161252d565b9050919050565b7f4f776e61626c653a206e6577206f776e657220697320746865207a65726f206160008201527f6464726573730000000000000000000000000000000000000000000000000000602082015250565b60006125cc602683611a94565b91506125d782612570565b604082019050919050565b600060208201905081810360008301526125fb816125bf565b9050919050565b7f4e487b7100000000000000000000000000000000000000000000000000000000600052602260045260246000fd5b6000600282049050600182168061264957607f821691505b60208210810361265c5761265b612602565b5b50919050565b7f4f776e61626c653a2063616c6c6572206973206e6f7420746865206f776e6572600082015250565b6000612698602083611a94565b91506126a382612662565b602082019050919050565b600060208201905081810360008301526126c78161268b565b905091905056fea2646970667358221220fd6dd902b3efe05ba1e6d6e9925ae43a6095613bd6ae3b2d54396a772740775764736f6c63430008110033",
  "linkReferences": {},
  "deployedLinkReferences": {}
}