{
  "_format": "hh-sol-artifact-1",
  "contractName": "TokenExchange",
  "sourceName": "contracts/exchange.sol",
  "abi": [
    {
      "inputs": [],
      "stateMutability": "nonpayable",
      "type": "constructor"
    },
    {
      "anonymous": false,
      "inputs": [
        {
          "indexed": true,
          "internalType": "address",
          "name": "previousOwner",
          "type": "address"
        },
        {
          "indexed": true,
          "internalType": "address",
          "name": "newOwner",
          "type": "address"
        }
      ],
      "name": "OwnershipTransferred",
      "type": "event"
    },
    {
      "inputs": [
        {
          "internalType": "uint256",
          "name": "max_exchange_rate",
          "type": "uint256"
        },
        {
          "internalType": "uint256",
          "name": "min_exchange_rate",
          "type": "uint256"
        }
      ],
      "name": "addLiquidity",
      "outputs": [],
      "stateMutability": "payable",
      "type": "function"
    },
    {
      "inputs": [
        {
          "internalType": "uint256",
          "name": "amountTokens",
          "type": "uint256"
        }
      ],
      "name": "createPool",
      "outputs": [],
      "stateMutability": "payable",
      "type": "function"
    },
    {
      "inputs": [],
      "name": "exchange_name",
      "outputs": [
        {
          "internalType": "string",
          "name": "",
          "type": "string"
        }
      ],
      "stateMutability": "view",
      "type": "function"
    },
    {
      "inputs": [],
      "name": "getSwapFee",
      "outputs": [
        {
          "internalType": "uint256",
          "name": "",
          "type": "uint256"
        },
        {
          "internalType": "uint256",
          "name": "",
          "type": "uint256"
        }
      ],
      "stateMutability": "view",
      "type": "function"
    },
    {
      "inputs": [],
      "name": "owner",
      "outputs": [
        {
          "internalType": "address",
          "name": "",
          "type": "address"
        }
      ],
      "stateMutability": "view",
      "type": "function"
    },
    {
      "inputs": [
        {
          "internalType": "uint256",
          "name": "max_exchange_rate",
          "type": "uint256"
        },
        {
          "internalType": "uint256",
          "name": "min_exchange_rate",
          "type": "uint256"
        }
      ],
      "name": "removeAllLiquidity",
      "outputs": [],
      "stateMutability": "payable",
      "type": "function"
    },
    {
      "inputs": [
        {
          "internalType": "uint256",
          "name": "amountETH",
          "type": "uint256"
        },
        {
          "internalType": "uint256",
          "name": "max_exchange_rate",
          "type": "uint256"
        },
        {
          "internalType": "uint256",
          "name": "min_exchange_rate",
          "type": "uint256"
        }
      ],
      "name": "removeLiquidity",
      "outputs": [],
      "stateMutability": "payable",
      "type": "function"
    },
    {
      "inputs": [],
      "name": "renounceOwnership",
      "outputs": [],
      "stateMutability": "nonpayable",
      "type": "function"
    },
    {
      "inputs": [
        {
          "internalType": "uint256",
          "name": "max_exchange_rate",
          "type": "uint256"
        }
      ],
      "name": "swapETHForTokens",
      "outputs": [],
      "stateMutability": "payable",
      "type": "function"
    },
    {
      "inputs": [
        {
          "internalType": "uint256",
          "name": "amountTokens",
          "type": "uint256"
        },
        {
          "internalType": "uint256",
          "name": "max_exchange_rate",
          "type": "uint256"
        }
      ],
      "name": "swapTokensForETH",
      "outputs": [],
      "stateMutability": "payable",
      "type": "function"
    },
    {
      "inputs": [],
      "name": "token",
      "outputs": [
        {
          "internalType": "contract Token",
          "name": "",
          "type": "address"
        }
      ],
      "stateMutability": "view",
      "type": "function"
    },
    {
      "inputs": [
        {
          "internalType": "address",
          "name": "newOwner",
          "type": "address"
        }
      ],
      "name": "transferOwnership",
      "outputs": [],
      "stateMutability": "nonpayable",
      "type": "function"
    }
  ],
  "bytecode": "0x60806040526040518060400160405280600381526020017f4741590000000000000000000000000000000000000000000000000000000000815250600190816200004a919062000491565b50732279b7a0a67db372996a5fab50d91eaa73d2ebe6600260006101000a81548173ffffffffffffffffffffffffffffffffffffffff021916908373ffffffffffffffffffffffffffffffffffffffff160217905550600260009054906101000a900473ffffffffffffffffffffffffffffffffffffffff16600360006101000a81548173ffffffffffffffffffffffffffffffffffffffff021916908373ffffffffffffffffffffffffffffffffffffffff16021790555060006004556000600555600360085560646009553480156200012457600080fd5b5062000145620001396200014b60201b60201c565b6200015360201b60201c565b62000578565b600033905090565b60008060009054906101000a900473ffffffffffffffffffffffffffffffffffffffff169050816000806101000a81548173ffffffffffffffffffffffffffffffffffffffff021916908373ffffffffffffffffffffffffffffffffffffffff1602179055508173ffffffffffffffffffffffffffffffffffffffff168173ffffffffffffffffffffffffffffffffffffffff167f8be0079c531659141344cd1fd0a4f28419497f9722a3daafe3b4186f6b6457e060405160405180910390a35050565b600081519050919050565b7f4e487b7100000000000000000000000000000000000000000000000000000000600052604160045260246000fd5b7f4e487b7100000000000000000000000000000000000000000000000000000000600052602260045260246000fd5b600060028204905060018216806200029957607f821691505b602082108103620002af57620002ae62000251565b5b50919050565b60008190508160005260206000209050919050565b60006020601f8301049050919050565b600082821b905092915050565b600060088302620003197fffffffffffffffffffffffffffffffffffffffffffffffffffffffffffffffff82620002da565b620003258683620002da565b95508019841693508086168417925050509392505050565b6000819050919050565b6000819050919050565b6000620003726200036c62000366846200033d565b62000347565b6200033d565b9050919050565b6000819050919050565b6200038e8362000351565b620003a66200039d8262000379565b848454620002e7565b825550505050565b600090565b620003bd620003ae565b620003ca81848462000383565b505050565b5b81811015620003f257620003e6600082620003b3565b600181019050620003d0565b5050565b601f82111562000441576200040b81620002b5565b6200041684620002ca565b8101602085101562000426578190505b6200043e6200043585620002ca565b830182620003cf565b50505b505050565b600082821c905092915050565b6000620004666000198460080262000446565b1980831691505092915050565b600062000481838362000453565b9150826002028217905092915050565b6200049c8262000217565b67ffffffffffffffff811115620004b857620004b762000222565b5b620004c4825462000280565b620004d1828285620003f6565b600060209050601f831160018114620005095760008415620004f4578287015190505b62000500858262000473565b86555062000570565b601f1984166200051986620002b5565b60005b8281101562000543578489015182556001820191506020850194506020810190506200051c565b868310156200056357848901516200055f601f89168262000453565b8355505b6001600288020188555050505b505050505050565b61283580620005886000396000f3fe6080604052600436106100a75760003560e01c80639cd441da116100645780639cd441da1461015e578063a22280a61461017a578063d4cadf6814610196578063f2fde38b146101c2578063f694f7d1146101eb578063fc0c546a14610216576100a7565b80632eab2841146100ac57806358ad6de4146100c8578063715018a6146100e45780638259e6a0146100fb578063857620e1146101175780638da5cb5b14610133575b600080fd5b6100c660048036038101906100c19190611941565b610241565b005b6100e260048036038101906100dd919061196e565b61046f565b005b3480156100f057600080fd5b506100f9610506565b005b61011560048036038101906101109190611941565b61051a565b005b610131600480360381019061012c91906119ae565b61087b565b005b34801561013f57600080fd5b50610148610cd4565b6040516101559190611a42565b60405180910390f35b6101786004803603810190610173919061196e565b610cfd565b005b610194600480360381019061018f919061196e565b6111bd565b005b3480156101a257600080fd5b506101ab61150d565b6040516101b9929190611a6c565b60405180910390f35b3480156101ce57600080fd5b506101e960048036038101906101e49190611ac1565b61151e565b005b3480156101f757600080fd5b506102006115a1565b60405161020d9190611b7e565b60405180910390f35b34801561022257600080fd5b5061022b61162f565b6040516102389190611bff565b60405180910390f35b600034905060008111610289576040517f08c379a000000000000000000000000000000000000000000000000000000000815260040161028090611c66565b60405180910390fd5b6000610293611655565b9050828110156102d8576040517f08c379a00000000000000000000000000000000000000000000000000000000081526004016102cf90611cd2565b60405180910390fd5b60006009546008546009546102ed9190611d21565b846102f89190611d55565b6103029190611dc6565b90506000816005546103149190611df7565b600454836103229190611d55565b61032c9190611dc6565b905060018160045461033e9190611d21565b101561037f576040517f08c379a000000000000000000000000000000000000000000000000000000000815260040161037690611e77565b60405180910390fd5b600360009054906101000a900473ffffffffffffffffffffffffffffffffffffffff1673ffffffffffffffffffffffffffffffffffffffff1663a9059cbb33836040518363ffffffff1660e01b81526004016103dc929190611e97565b6020604051808303816000875af11580156103fb573d6000803e3d6000fd5b505050506040513d601f19601f8201168201806040525081019061041f9190611ef8565b5083600560008282546104329190611df7565b92505081905550806004600082825461044b9190611d21565b925050819055506005546004546104629190611d55565b600a819055505050505050565b6000600660003373ffffffffffffffffffffffffffffffffffffffff1673ffffffffffffffffffffffffffffffffffffffff168152602001908152602001600020549050600081116104f6576040517f08c379a00000000000000000000000000000000000000000000000000000000081526004016104ed90611f71565b60405180910390fd5b61050181848461087b565b505050565b61050e61167f565b61051860006116fd565b565b61052261167f565b600060045414610567576040517f08c379a000000000000000000000000000000000000000000000000000000000815260040161055e90611fdd565b60405180910390fd5b6000600554146105ac576040517f08c379a00000000000000000000000000000000000000000000000000000000081526004016105a390612049565b60405180910390fd5b600034116105ef576040517f08c379a00000000000000000000000000000000000000000000000000000000081526004016105e6906120b5565b60405180910390fd5b6000600360009054906101000a900473ffffffffffffffffffffffffffffffffffffffff1673ffffffffffffffffffffffffffffffffffffffff166370a08231336040518263ffffffff1660e01b815260040161064c9190611a42565b602060405180830381865afa158015610669573d6000803e3d6000fd5b505050506040513d601f19601f8201168201806040525081019061068d91906120ea565b9050808211156106d2576040517f08c379a00000000000000000000000000000000000000000000000000000000081526004016106c990612189565b60405180910390fd5b60008211610715576040517f08c379a000000000000000000000000000000000000000000000000000000000815260040161070c906121f5565b60405180910390fd5b600360009054906101000a900473ffffffffffffffffffffffffffffffffffffffff1673ffffffffffffffffffffffffffffffffffffffff166323b872dd3330856040518463ffffffff1660e01b815260040161077493929190612215565b6020604051808303816000875af1158015610793573d6000803e3d6000fd5b505050506040513d601f19601f820116820180604052508101906107b79190611ef8565b50600360009054906101000a900473ffffffffffffffffffffffffffffffffffffffff1673ffffffffffffffffffffffffffffffffffffffff166370a08231306040518263ffffffff1660e01b81526004016108139190611a42565b602060405180830381865afa158015610830573d6000803e3d6000fd5b505050506040513d601f19601f8201168201806040525081019061085491906120ea565b600481905550346005819055506005546004546108719190611d55565b600a819055505050565b600083116108be576040517f08c379a00000000000000000000000000000000000000000000000000000000081526004016108b590612298565b60405180910390fd5b82600660003373ffffffffffffffffffffffffffffffffffffffff1673ffffffffffffffffffffffffffffffffffffffff168152602001908152602001600020541015610940576040517f08c379a000000000000000000000000000000000000000000000000000000000815260040161093790612304565b60405180910390fd5b600061094a611655565b905082811115801561095c5750818110155b61099b576040517f08c379a000000000000000000000000000000000000000000000000000000000815260040161099290611cd2565b60405180910390fd5b6000600554600454866109ae9190611d55565b6109b89190611dc6565b90506001856005546109ca9190611d21565b1015610a0b576040517f08c379a0000000000000000000000000000000000000000000000000000000008152600401610a0290612370565b60405180910390fd5b600181600454610a1b9190611d21565b1015610a5c576040517f08c379a0000000000000000000000000000000000000000000000000000000008152600401610a5390611e77565b60405180910390fd5b8460056000828254610a6e9190611d21565b925050819055508060046000828254610a879190611d21565b92505081905550600554600454610a9e9190611d55565b600a8190555084600660003373ffffffffffffffffffffffffffffffffffffffff1673ffffffffffffffffffffffffffffffffffffffff1681526020019081526020016000206000828254610af39190611d21565b925050819055506000600660003373ffffffffffffffffffffffffffffffffffffffff1673ffffffffffffffffffffffffffffffffffffffff1681526020019081526020016000205403610be55760005b600780549050811015610be3573373ffffffffffffffffffffffffffffffffffffffff1660078281548110610b7c57610b7b612390565b5b9060005260206000200160009054906101000a900473ffffffffffffffffffffffffffffffffffffffff1673ffffffffffffffffffffffffffffffffffffffff1603610bd057610bcb816117c1565b610be3565b8080610bdb906123bf565b915050610b44565b505b3373ffffffffffffffffffffffffffffffffffffffff166108fc869081150290604051600060405180830381858888f19350505050158015610c2b573d6000803e3d6000fd5b50600360009054906101000a900473ffffffffffffffffffffffffffffffffffffffff1673ffffffffffffffffffffffffffffffffffffffff1663a9059cbb33836040518363ffffffff1660e01b8152600401610c89929190611e97565b6020604051808303816000875af1158015610ca8573d6000803e3d6000fd5b505050506040513d601f19601f82011682018060405250810190610ccc9190611ef8565b505050505050565b60008060009054906101000a900473ffffffffffffffffffffffffffffffffffffffff16905090565b60003411610d40576040517f08c379a0000000000000000000000000000000000000000000000000000000008152600401610d3790612453565b60405180910390fd5b6000600454118015610d5457506000600554115b610d93576040517f08c379a0000000000000000000000000000000000000000000000000000000008152600401610d8a906124bf565b60405180910390fd5b6000610d9d611655565b9050828111158015610daf5750818110155b610dee576040517f08c379a0000000000000000000000000000000000000000000000000000000008152600401610de590611cd2565b60405180910390fd5b600060055460045434610e019190611d55565b610e0b9190611dc6565b905080600360009054906101000a900473ffffffffffffffffffffffffffffffffffffffff1673ffffffffffffffffffffffffffffffffffffffff1663dd62ed3e33306040518363ffffffff1660e01b8152600401610e6b9291906124df565b602060405180830381865afa158015610e88573d6000803e3d6000fd5b505050506040513d601f19601f82011682018060405250810190610eac91906120ea565b1015610eed576040517f08c379a0000000000000000000000000000000000000000000000000000000008152600401610ee490612554565b60405180910390fd5b80600360009054906101000a900473ffffffffffffffffffffffffffffffffffffffff1673ffffffffffffffffffffffffffffffffffffffff166370a08231336040518263ffffffff1660e01b8152600401610f499190611a42565b602060405180830381865afa158015610f66573d6000803e3d6000fd5b505050506040513d601f19601f82011682018060405250810190610f8a91906120ea565b1015610fcb576040517f08c379a0000000000000000000000000000000000000000000000000000000008152600401610fc2906125c0565b60405180910390fd5b600360009054906101000a900473ffffffffffffffffffffffffffffffffffffffff1673ffffffffffffffffffffffffffffffffffffffff166323b872dd3330846040518463ffffffff1660e01b815260040161102a93929190612215565b6020604051808303816000875af1158015611049573d6000803e3d6000fd5b505050506040513d601f19601f8201168201806040525081019061106d9190611ef8565b5080600460008282546110809190611df7565b9250508190555034600560008282546110999190611df7565b925050819055506005546004546110b09190611d55565b600a819055506000600660003373ffffffffffffffffffffffffffffffffffffffff1673ffffffffffffffffffffffffffffffffffffffff1681526020019081526020016000205403611161576007339080600181540180825580915050600190039060005260206000200160009091909190916101000a81548173ffffffffffffffffffffffffffffffffffffffff021916908373ffffffffffffffffffffffffffffffffffffffff1602179055505b34600660003373ffffffffffffffffffffffffffffffffffffffff1673ffffffffffffffffffffffffffffffffffffffff16815260200190815260200160002060008282546111b09190611df7565b9250508190555050505050565b60008211611200576040517f08c379a00000000000000000000000000000000000000000000000000000000081526004016111f790611c66565b60405180910390fd5b81600360009054906101000a900473ffffffffffffffffffffffffffffffffffffffff1673ffffffffffffffffffffffffffffffffffffffff166370a08231336040518263ffffffff1660e01b815260040161125c9190611a42565b602060405180830381865afa158015611279573d6000803e3d6000fd5b505050506040513d601f19601f8201168201806040525081019061129d91906120ea565b10156112de576040517f08c379a00000000000000000000000000000000000000000000000000000000081526004016112d5906125c0565b60405180910390fd5b60006112e8611655565b90508181111561132d576040517f08c379a000000000000000000000000000000000000000000000000000000000815260040161132490611cd2565b60405180910390fd5b60006009546008546009546113429190611d21565b8561134d9190611d55565b6113579190611dc6565b90506000816004546113699190611df7565b600554836113779190611d55565b6113819190611dc6565b90506001816005546113939190611d21565b10156113d4576040517f08c379a00000000000000000000000000000000000000000000000000000000081526004016113cb90612370565b60405180910390fd5b600360009054906101000a900473ffffffffffffffffffffffffffffffffffffffff1673ffffffffffffffffffffffffffffffffffffffff166323b872dd3330886040518463ffffffff1660e01b815260040161143393929190612215565b6020604051808303816000875af1158015611452573d6000803e3d6000fd5b505050506040513d601f19601f820116820180604052508101906114769190611ef8565b503373ffffffffffffffffffffffffffffffffffffffff166108fc829081150290604051600060405180830381858888f193505050501580156114bd573d6000803e3d6000fd5b5084600460008282546114d09190611df7565b9250508190555080600560008282546114e99190611d21565b925050819055506005546004546115009190611d55565b600a819055505050505050565b600080600854600954915091509091565b61152661167f565b600073ffffffffffffffffffffffffffffffffffffffff168173ffffffffffffffffffffffffffffffffffffffff1603611595576040517f08c379a000000000000000000000000000000000000000000000000000000000815260040161158c90612652565b60405180910390fd5b61159e816116fd565b50565b600180546115ae906126a1565b80601f01602080910402602001604051908101604052809291908181526020018280546115da906126a1565b80156116275780601f106115fc57610100808354040283529160200191611627565b820191906000526020600020905b81548152906001019060200180831161160a57829003601f168201915b505050505081565b600360009054906101000a900473ffffffffffffffffffffffffffffffffffffffff1681565b6000600554670de0b6b3a76400006004546116709190611d55565b61167a9190611dc6565b905090565b6116876118fe565b73ffffffffffffffffffffffffffffffffffffffff166116a5610cd4565b73ffffffffffffffffffffffffffffffffffffffff16146116fb576040517f08c379a00000000000000000000000000000000000000000000000000000000081526004016116f29061271e565b60405180910390fd5b565b60008060009054906101000a900473ffffffffffffffffffffffffffffffffffffffff169050816000806101000a81548173ffffffffffffffffffffffffffffffffffffffff021916908373ffffffffffffffffffffffffffffffffffffffff1602179055508173ffffffffffffffffffffffffffffffffffffffff168173ffffffffffffffffffffffffffffffffffffffff167f8be0079c531659141344cd1fd0a4f28419497f9722a3daafe3b4186f6b6457e060405160405180910390a35050565b6007805490508110611808576040517f08c379a00000000000000000000000000000000000000000000000000000000081526004016117ff906127b0565b60405180910390fd5b6007600160078054905061181c9190611d21565b8154811061182d5761182c612390565b5b9060005260206000200160009054906101000a900473ffffffffffffffffffffffffffffffffffffffff166007828154811061186c5761186b612390565b5b9060005260206000200160006101000a81548173ffffffffffffffffffffffffffffffffffffffff021916908373ffffffffffffffffffffffffffffffffffffffff16021790555060078054806118c6576118c56127d0565b5b6001900381819060005260206000200160006101000a81549073ffffffffffffffffffffffffffffffffffffffff0219169055905550565b600033905090565b600080fd5b6000819050919050565b61191e8161190b565b811461192957600080fd5b50565b60008135905061193b81611915565b92915050565b60006020828403121561195757611956611906565b5b60006119658482850161192c565b91505092915050565b6000806040838503121561198557611984611906565b5b60006119938582860161192c565b92505060206119a48582860161192c565b9150509250929050565b6000806000606084860312156119c7576119c6611906565b5b60006119d58682870161192c565b93505060206119e68682870161192c565b92505060406119f78682870161192c565b9150509250925092565b600073ffffffffffffffffffffffffffffffffffffffff82169050919050565b6000611a2c82611a01565b9050919050565b611a3c81611a21565b82525050565b6000602082019050611a576000830184611a33565b92915050565b611a668161190b565b82525050565b6000604082019050611a816000830185611a5d565b611a8e6020830184611a5d565b9392505050565b611a9e81611a21565b8114611aa957600080fd5b50565b600081359050611abb81611a95565b92915050565b600060208284031215611ad757611ad6611906565b5b6000611ae584828501611aac565b91505092915050565b600081519050919050565b600082825260208201905092915050565b60005b83811015611b28578082015181840152602081019050611b0d565b60008484015250505050565b6000601f19601f8301169050919050565b6000611b5082611aee565b611b5a8185611af9565b9350611b6a818560208601611b0a565b611b7381611b34565b840191505092915050565b60006020820190508181036000830152611b988184611b45565b905092915050565b6000819050919050565b6000611bc5611bc0611bbb84611a01565b611ba0565b611a01565b9050919050565b6000611bd782611baa565b9050919050565b6000611be982611bcc565b9050919050565b611bf981611bde565b82525050565b6000602082019050611c146000830184611bf0565b92915050565b7f5a65726f20616d6f756e74000000000000000000000000000000000000000000600082015250565b6000611c50600b83611af9565b9150611c5b82611c1a565b602082019050919050565b60006020820190508181036000830152611c7f81611c43565b9050919050565b7f536c697070616765000000000000000000000000000000000000000000000000600082015250565b6000611cbc600883611af9565b9150611cc782611c86565b602082019050919050565b60006020820190508181036000830152611ceb81611caf565b9050919050565b7f4e487b7100000000000000000000000000000000000000000000000000000000600052601160045260246000fd5b6000611d2c8261190b565b9150611d378361190b565b9250828203905081811115611d4f57611d4e611cf2565b5b92915050565b6000611d608261190b565b9150611d6b8361190b565b9250828202611d798161190b565b91508282048414831517611d9057611d8f611cf2565b5b5092915050565b7f4e487b7100000000000000000000000000000000000000000000000000000000600052601260045260246000fd5b6000611dd18261190b565b9150611ddc8361190b565b925082611dec57611deb611d97565b5b828204905092915050565b6000611e028261190b565b9150611e0d8361190b565b9250828201905080821115611e2557611e24611cf2565b5b92915050565b7f576f756c6420647261696e20746f6b656e20706f6f6c00000000000000000000600082015250565b6000611e61601683611af9565b9150611e6c82611e2b565b602082019050919050565b60006020820190508181036000830152611e9081611e54565b9050919050565b6000604082019050611eac6000830185611a33565b611eb96020830184611a5d565b9392505050565b60008115159050919050565b611ed581611ec0565b8114611ee057600080fd5b50565b600081519050611ef281611ecc565b92915050565b600060208284031215611f0e57611f0d611906565b5b6000611f1c84828501611ee3565b91505092915050565b7f4e6f206c697175696469747920746f2072656d6f766500000000000000000000600082015250565b6000611f5b601683611af9565b9150611f6682611f25565b602082019050919050565b60006020820190508181036000830152611f8a81611f4e565b9050919050565b7f546f6b656e20726573657276657320776173206e6f7420300000000000000000600082015250565b6000611fc7601883611af9565b9150611fd282611f91565b602082019050919050565b60006020820190508181036000830152611ff681611fba565b9050919050565b7f45544820726573657276657320776173206e6f7420302e000000000000000000600082015250565b6000612033601783611af9565b915061203e82611ffd565b602082019050919050565b6000602082019050818103600083015261206281612026565b9050919050565b7f4e6565642065746820746f2063726561746520706f6f6c2e0000000000000000600082015250565b600061209f601883611af9565b91506120aa82612069565b602082019050919050565b600060208201905081810360008301526120ce81612092565b9050919050565b6000815190506120e481611915565b92915050565b600060208284031215612100576120ff611906565b5b600061210e848285016120d5565b91505092915050565b7f4e6f74206861766520656e6f75676820746f6b656e7320746f2063726561746560008201527f2074686520706f6f6c0000000000000000000000000000000000000000000000602082015250565b6000612173602983611af9565b915061217e82612117565b604082019050919050565b600060208201905081810360008301526121a281612166565b9050919050565b7f4e65656420746f6b656e7320746f2063726561746520706f6f6c2e0000000000600082015250565b60006121df601b83611af9565b91506121ea826121a9565b602082019050919050565b6000602082019050818103600083015261220e816121d2565b9050919050565b600060608201905061222a6000830186611a33565b6122376020830185611a33565b6122446040830184611a5d565b949350505050565b7f4e6f7468696e6720746f20776974686472617700000000000000000000000000600082015250565b6000612282601383611af9565b915061228d8261224c565b602082019050919050565b600060208201905081810360008301526122b181612275565b9050919050565b7f4e6f7420656e6f756768204c5020746f6b656e73000000000000000000000000600082015250565b60006122ee601483611af9565b91506122f9826122b8565b602082019050919050565b6000602082019050818103600083015261231d816122e1565b9050919050565b7f576f756c6420647261696e2045544820706f6f6c000000000000000000000000600082015250565b600061235a601483611af9565b915061236582612324565b602082019050919050565b600060208201905081810360008301526123898161234d565b9050919050565b7f4e487b7100000000000000000000000000000000000000000000000000000000600052603260045260246000fd5b60006123ca8261190b565b91507fffffffffffffffffffffffffffffffffffffffffffffffffffffffffffffffff82036123fc576123fb611cf2565b5b600182019050919050565b7f53656e6420736f6d652045544800000000000000000000000000000000000000600082015250565b600061243d600d83611af9565b915061244882612407565b602082019050919050565b6000602082019050818103600083015261246c81612430565b9050919050565b7f506f6f6c206e6f7420696e697469616c69736564000000000000000000000000600082015250565b60006124a9601483611af9565b91506124b482612473565b602082019050919050565b600060208201905081810360008301526124d88161249c565b9050919050565b60006040820190506124f46000830185611a33565b6125016020830184611a33565b9392505050565b7f417070726f766520746f6b656e73206669727374000000000000000000000000600082015250565b600061253e601483611af9565b915061254982612508565b602082019050919050565b6000602082019050818103600083015261256d81612531565b9050919050565b7f4e6f7420656e6f75676820746f6b656e73000000000000000000000000000000600082015250565b60006125aa601183611af9565b91506125b582612574565b602082019050919050565b600060208201905081810360008301526125d98161259d565b9050919050565b7f4f776e61626c653a206e6577206f776e657220697320746865207a65726f206160008201527f6464726573730000000000000000000000000000000000000000000000000000602082015250565b600061263c602683611af9565b9150612647826125e0565b604082019050919050565b6000602082019050818103600083015261266b8161262f565b9050919050565b7f4e487b7100000000000000000000000000000000000000000000000000000000600052602260045260246000fd5b600060028204905060018216806126b957607f821691505b6020821081036126cc576126cb612672565b5b50919050565b7f4f776e61626c653a2063616c6c6572206973206e6f7420746865206f776e6572600082015250565b6000612708602083611af9565b9150612713826126d2565b602082019050919050565b60006020820190508181036000830152612737816126fb565b9050919050565b7f73706563696669656420696e646578206973206c6172676572207468616e207460008201527f6865206e756d626572206f66206c707300000000000000000000000000000000602082015250565b600061279a603083611af9565b91506127a58261273e565b604082019050919050565b600060208201905081810360008301526127c98161278d565b9050919050565b7f4e487b7100000000000000000000000000000000000000000000000000000000600052603160045260246000fdfea2646970667358221220917f072a6d3b54fa94b61b9f945110721d0bee2a9402003c88e35cd5a80f6c8f64736f6c63430008110033",
  "linkReferences": {},
  "deployedLinkReferences": {}
}