{"contracts/exchange.sol":{"TokenExchange":{"abi":[{"inputs":[],"stateMutability":"nonpayable","type":"constructor"},{"anonymous":false,"inputs":[{"indexed":true,"internalType":"address","name":"previousOwner","type":"address"},{"indexed":true,"internalType":"address","name":"newOwner","type":"address"}],"name":"OwnershipTransferred","type":"event"},{"inputs":[{"internalType":"uint256","name":"max_exchange_rate","type":"uint256"},{"internalType":"uint256","name":"min_exchange_rate","type":"uint256"}],"name":"addLiquidity","outputs":[],"stateMutability":"payable","type":"function"},{"inputs":[{"internalType":"uint256","name":"amountTokens","type":"uint256"}],"name":"createPool","outputs":[],"stateMutability":"payable","type":"function"},{"inputs":[],"name":"exchange_name","outputs":[{"internalType":"string","name":"","type":"string"}],"stateMutability":"view","type":"function"},{"inputs":[],"name":"getSwapFee","outputs":[{"internalType":"uint256","name":"","type":"uint256"},{"internalType":"uint256","name":"","type":"uint256"}],"stateMutability":"view","type":"function"},{"inputs":[],"name":"owner","outputs":[{"internalType":"address","name":"","type":"address"}],"stateMutability":"view","type":"function"},{"inputs":[{"internalType":"uint256","name":"max_exchange_rate","type":"uint256"},{"internalType":"uint256","name":"min_exchange_rate","type":"uint256"}],"name":"removeAllLiquidity","outputs":[],"stateMutability":"payable","type":"function"},{"inputs":[{"internalType":"uint256","name":"amountETH","type":"uint256"},{"internalType":"uint256","name":"max_exchange_rate","type":"uint256"},{"internalType":"uint256","name":"min_exchange_rate","type":"uint256"}],"name":"removeLiquidity","outputs":[],"stateMutability":"payable","type":"function"},{"inputs":[],"name":"renounceOwnership","outputs":[],"stateMutability":"nonpayable","type":"function"},{"inputs":[{"internalType":"uint256","name":"max_exchange_rate","type":"uint256"}],"name":"swapETHForTokens","outputs":[],"stateMutability":"payable","type":"function"},{"inputs":[{"internalType":"uint256","name":"amountTokens","type":"uint256"},{"internalType":"uint256","name":"max_exchange_rate","type":"uint256"}],"name":"swapTokensForETH","outputs":[],"stateMutability":"payable","type":"function"},{"inputs":[],"name":"token","outputs":[{"internalType":"contract Token","name":"","type":"address"}],"stateMutability":"view","type":"function"},{"inputs":[{"internalType":"address","name":"newOwner","type":"address"}],"name":"transferOwnership","outputs":[],"stateMutability":"nonpayable","type":"function"}],"evm":{"bytecode":{"linkReferences":{},"object":"6080604052604051806020016040528060008152506001908162000024919062000416565b50600260009054906101000a900473ffffffffffffffffffffffffffffffffffffffff16600360006101000a81548173ffffffffffffffffffffffffffffffffffffffff021916908373ffffffffffffffffffffffffffffffffffffffff1602179055506000600455600060055560036008556064600955348015620000a957600080fd5b50620000ca620000be620000d060201b60201c565b620000d860201b60201c565b620004fd565b600033905090565b60008060009054906101000a900473ffffffffffffffffffffffffffffffffffffffff169050816000806101000a81548173ffffffffffffffffffffffffffffffffffffffff021916908373ffffffffffffffffffffffffffffffffffffffff1602179055508173ffffffffffffffffffffffffffffffffffffffff168173ffffffffffffffffffffffffffffffffffffffff167f8be0079c531659141344cd1fd0a4f28419497f9722a3daafe3b4186f6b6457e060405160405180910390a35050565b600081519050919050565b7f4e487b7100000000000000000000000000000000000000000000000000000000600052604160045260246000fd5b7f4e487b7100000000000000000000000000000000000000000000000000000000600052602260045260246000fd5b600060028204905060018216806200021e57607f821691505b602082108103620002345762000233620001d6565b5b50919050565b60008190508160005260206000209050919050565b60006020601f8301049050919050565b600082821b905092915050565b6000600883026200029e7fffffffffffffffffffffffffffffffffffffffffffffffffffffffffffffffff826200025f565b620002aa86836200025f565b95508019841693508086168417925050509392505050565b6000819050919050565b6000819050919050565b6000620002f7620002f1620002eb84620002c2565b620002cc565b620002c2565b9050919050565b6000819050919050565b6200031383620002d6565b6200032b6200032282620002fe565b8484546200026c565b825550505050565b600090565b6200034262000333565b6200034f81848462000308565b505050565b5b8181101562000377576200036b60008262000338565b60018101905062000355565b5050565b601f821115620003c65762000390816200023a565b6200039b846200024f565b81016020851015620003ab578190505b620003c3620003ba856200024f565b83018262000354565b50505b505050565b600082821c905092915050565b6000620003eb60001984600802620003cb565b1980831691505092915050565b6000620004068383620003d8565b9150826002028217905092915050565b62000421826200019c565b67ffffffffffffffff8111156200043d576200043c620001a7565b5b62000449825462000205565b620004568282856200037b565b600060209050601f8311600181146200048e576000841562000479578287015190505b620004858582620003f8565b865550620004f5565b601f1984166200049e866200023a565b60005b82811015620004c857848901518255600182019150602085019450602081019050620004a1565b86831015620004e85784890151620004e4601f891682620003d8565b8355505b6001600288020188555050505b505050505050565b6110be806200050d6000396000f3fe6080604052600436106100a75760003560e01c80639cd441da116100645780639cd441da1461015e578063a22280a61461017a578063d4cadf6814610196578063f2fde38b146101c2578063f694f7d1146101eb578063fc0c546a14610216576100a7565b80632eab2841146100ac57806358ad6de4146100c8578063715018a6146100e45780638259e6a0146100fb578063857620e1146101175780638da5cb5b14610133575b600080fd5b6100c660048036038101906100c191906108c0565b610241565b005b6100e260048036038101906100dd91906108ed565b610244565b005b3480156100f057600080fd5b506100f9610248565b005b610115600480360381019061011091906108c0565b61025c565b005b610131600480360381019061012c919061092d565b6105bd565b005b34801561013f57600080fd5b506101486105c2565b60405161015591906109c1565b60405180910390f35b610178600480360381019061017391906108ed565b6105eb565b005b610194600480360381019061018f91906108ed565b6105ef565b005b3480156101a257600080fd5b506101ab6105f3565b6040516101b99291906109eb565b60405180910390f35b3480156101ce57600080fd5b506101e960048036038101906101e49190610a40565b610604565b005b3480156101f757600080fd5b50610200610687565b60405161020d9190610afd565b60405180910390f35b34801561022257600080fd5b5061022b610715565b6040516102389190610b7e565b60405180910390f35b50565b5050565b61025061073b565b61025a60006107b9565b565b61026461073b565b6000600454146102a9576040517f08c379a00000000000000000000000000000000000000000000000000000000081526004016102a090610be5565b60405180910390fd5b6000600554146102ee576040517f08c379a00000000000000000000000000000000000000000000000000000000081526004016102e590610c51565b60405180910390fd5b60003411610331576040517f08c379a000000000000000000000000000000000000000000000000000000000815260040161032890610cbd565b60405180910390fd5b6000600360009054906101000a900473ffffffffffffffffffffffffffffffffffffffff1673ffffffffffffffffffffffffffffffffffffffff166370a08231336040518263ffffffff1660e01b815260040161038e91906109c1565b602060405180830381865afa1580156103ab573d6000803e3d6000fd5b505050506040513d601f19601f820116820180604052508101906103cf9190610cf2565b905080821115610414576040517f08c379a000000000000000000000000000000000000000000000000000000000815260040161040b90610d91565b60405180910390fd5b60008211610457576040517f08c379a000000000000000000000000000000000000000000000000000000000815260040161044e90610dfd565b60405180910390fd5b600360009054906101000a900473ffffffffffffffffffffffffffffffffffffffff1673ffffffffffffffffffffffffffffffffffffffff166323b872dd3330856040518463ffffffff1660e01b81526004016104b693929190610e1d565b6020604051808303816000875af11580156104d5573d6000803e3d6000fd5b505050506040513d601f19601f820116820180604052508101906104f99190610e8c565b50600360009054906101000a900473ffffffffffffffffffffffffffffffffffffffff1673ffffffffffffffffffffffffffffffffffffffff166370a08231306040518263ffffffff1660e01b815260040161055591906109c1565b602060405180830381865afa158015610572573d6000803e3d6000fd5b505050506040513d601f19601f820116820180604052508101906105969190610cf2565b600481905550346005819055506005546004546105b39190610ee8565b600a819055505050565b505050565b60008060009054906101000a900473ffffffffffffffffffffffffffffffffffffffff16905090565b5050565b5050565b600080600854600954915091509091565b61060c61073b565b600073ffffffffffffffffffffffffffffffffffffffff168173ffffffffffffffffffffffffffffffffffffffff160361067b576040517f08c379a000000000000000000000000000000000000000000000000000000000815260040161067290610f9c565b60405180910390fd5b610684816107b9565b50565b6001805461069490610feb565b80601f01602080910402602001604051908101604052809291908181526020018280546106c090610feb565b801561070d5780601f106106e25761010080835404028352916020019161070d565b820191906000526020600020905b8154815290600101906020018083116106f057829003601f168201915b505050505081565b600360009054906101000a900473ffffffffffffffffffffffffffffffffffffffff1681565b61074361087d565b73ffffffffffffffffffffffffffffffffffffffff166107616105c2565b73ffffffffffffffffffffffffffffffffffffffff16146107b7576040517f08c379a00000000000000000000000000000000000000000000000000000000081526004016107ae90611068565b60405180910390fd5b565b60008060009054906101000a900473ffffffffffffffffffffffffffffffffffffffff169050816000806101000a81548173ffffffffffffffffffffffffffffffffffffffff021916908373ffffffffffffffffffffffffffffffffffffffff1602179055508173ffffffffffffffffffffffffffffffffffffffff168173ffffffffffffffffffffffffffffffffffffffff167f8be0079c531659141344cd1fd0a4f28419497f9722a3daafe3b4186f6b6457e060405160405180910390a35050565b600033905090565b600080fd5b6000819050919050565b61089d8161088a565b81146108a857600080fd5b50565b6000813590506108ba81610894565b92915050565b6000602082840312156108d6576108d5610885565b5b60006108e4848285016108ab565b91505092915050565b6000806040838503121561090457610903610885565b5b6000610912858286016108ab565b9250506020610923858286016108ab565b9150509250929050565b60008060006060848603121561094657610945610885565b5b6000610954868287016108ab565b9350506020610965868287016108ab565b9250506040610976868287016108ab565b9150509250925092565b600073ffffffffffffffffffffffffffffffffffffffff82169050919050565b60006109ab82610980565b9050919050565b6109bb816109a0565b82525050565b60006020820190506109d660008301846109b2565b92915050565b6109e58161088a565b82525050565b6000604082019050610a0060008301856109dc565b610a0d60208301846109dc565b9392505050565b610a1d816109a0565b8114610a2857600080fd5b50565b600081359050610a3a81610a14565b92915050565b600060208284031215610a5657610a55610885565b5b6000610a6484828501610a2b565b91505092915050565b600081519050919050565b600082825260208201905092915050565b60005b83811015610aa7578082015181840152602081019050610a8c565b60008484015250505050565b6000601f19601f8301169050919050565b6000610acf82610a6d565b610ad98185610a78565b9350610ae9818560208601610a89565b610af281610ab3565b840191505092915050565b60006020820190508181036000830152610b178184610ac4565b905092915050565b6000819050919050565b6000610b44610b3f610b3a84610980565b610b1f565b610980565b9050919050565b6000610b5682610b29565b9050919050565b6000610b6882610b4b565b9050919050565b610b7881610b5d565b82525050565b6000602082019050610b936000830184610b6f565b92915050565b7f546f6b656e20726573657276657320776173206e6f7420300000000000000000600082015250565b6000610bcf601883610a78565b9150610bda82610b99565b602082019050919050565b60006020820190508181036000830152610bfe81610bc2565b9050919050565b7f45544820726573657276657320776173206e6f7420302e000000000000000000600082015250565b6000610c3b601783610a78565b9150610c4682610c05565b602082019050919050565b60006020820190508181036000830152610c6a81610c2e565b9050919050565b7f4e6565642065746820746f2063726561746520706f6f6c2e0000000000000000600082015250565b6000610ca7601883610a78565b9150610cb282610c71565b602082019050919050565b60006020820190508181036000830152610cd681610c9a565b9050919050565b600081519050610cec81610894565b92915050565b600060208284031215610d0857610d07610885565b5b6000610d1684828501610cdd565b91505092915050565b7f4e6f74206861766520656e6f75676820746f6b656e7320746f2063726561746560008201527f2074686520706f6f6c0000000000000000000000000000000000000000000000602082015250565b6000610d7b602983610a78565b9150610d8682610d1f565b604082019050919050565b60006020820190508181036000830152610daa81610d6e565b9050919050565b7f4e65656420746f6b656e7320746f2063726561746520706f6f6c2e0000000000600082015250565b6000610de7601b83610a78565b9150610df282610db1565b602082019050919050565b60006020820190508181036000830152610e1681610dda565b9050919050565b6000606082019050610e3260008301866109b2565b610e3f60208301856109b2565b610e4c60408301846109dc565b949350505050565b60008115159050919050565b610e6981610e54565b8114610e7457600080fd5b50565b600081519050610e8681610e60565b92915050565b600060208284031215610ea257610ea1610885565b5b6000610eb084828501610e77565b91505092915050565b7f4e487b7100000000000000000000000000000000000000000000000000000000600052601160045260246000fd5b6000610ef38261088a565b9150610efe8361088a565b9250828202610f0c8161088a565b91508282048414831517610f2357610f22610eb9565b5b5092915050565b7f4f776e61626c653a206e6577206f776e657220697320746865207a65726f206160008201527f6464726573730000000000000000000000000000000000000000000000000000602082015250565b6000610f86602683610a78565b9150610f9182610f2a565b604082019050919050565b60006020820190508181036000830152610fb581610f79565b9050919050565b7f4e487b7100000000000000000000000000000000000000000000000000000000600052602260045260246000fd5b6000600282049050600182168061100357607f821691505b60208210810361101657611015610fbc565b5b50919050565b7f4f776e61626c653a2063616c6c6572206973206e6f7420746865206f776e6572600082015250565b6000611052602083610a78565b915061105d8261101c565b602082019050919050565b6000602082019050818103600083015261108181611045565b905091905056fea26469706673582212206105d87415231ce5d4b922800cfc63872b4df70f405ae891cf0e237d29ace29b64736f6c63430008110033","opcodes":"PUSH1 0x80 PUSH1 0x40 MSTORE PUSH1 0x40 MLOAD DUP1 PUSH1 0x20 ADD PUSH1 0x40 MSTORE DUP1 PUSH1 0x0 DUP2 MSTORE POP PUSH1 0x1 SWAP1 DUP2 PUSH3 0x24 SWAP2 SWAP1 PUSH3 0x416 JUMP JUMPDEST POP PUSH1 0x2 PUSH1 0x0 SWAP1 SLOAD SWAP1 PUSH2 0x100 EXP SWAP1 DIV PUSH20 0xFFFFFFFFFFFFFFFFFFFFFFFFFFFFFFFFFFFFFFFF AND PUSH1 0x3 PUSH1 0x0 PUSH2 0x100 EXP DUP2 SLOAD DUP2 PUSH20 0xFFFFFFFFFFFFFFFFFFFFFFFFFFFFFFFFFFFFFFFF MUL NOT AND SWAP1 DUP4 PUSH20 0xFFFFFFFFFFFFFFFFFFFFFFFFFFFFFFFFFFFFFFFF AND MUL OR SWAP1 SSTORE POP PUSH1 0x0 PUSH1 0x4 SSTORE PUSH1 0x0 PUSH1 0x5 SSTORE PUSH1 0x3 PUSH1 0x8 SSTORE PUSH1 0x64 PUSH1 0x9 SSTORE CALLVALUE DUP1 ISZERO PUSH3 0xA9 JUMPI PUSH1 0x0 DUP1 REVERT JUMPDEST POP PUSH3 0xCA PUSH3 0xBE PUSH3 0xD0 PUSH1 0x20 SHL PUSH1 0x20 SHR JUMP JUMPDEST PUSH3 0xD8 PUSH1 0x20 SHL PUSH1 0x20 SHR JUMP JUMPDEST PUSH3 0x4FD JUMP JUMPDEST PUSH1 0x0 CALLER SWAP1 POP SWAP1 JUMP JUMPDEST PUSH1 0x0 DUP1 PUSH1 0x0 SWAP1 SLOAD SWAP1 PUSH2 0x100 EXP SWAP1 DIV PUSH20 0xFFFFFFFFFFFFFFFFFFFFFFFFFFFFFFFFFFFFFFFF AND SWAP1 POP DUP2 PUSH1 0x0 DUP1 PUSH2 0x100 EXP DUP2 SLOAD DUP2 PUSH20 0xFFFFFFFFFFFFFFFFFFFFFFFFFFFFFFFFFFFFFFFF MUL NOT AND SWAP1 DUP4 PUSH20 0xFFFFFFFFFFFFFFFFFFFFFFFFFFFFFFFFFFFFFFFF AND MUL OR SWAP1 SSTORE POP DUP2 PUSH20 0xFFFFFFFFFFFFFFFFFFFFFFFFFFFFFFFFFFFFFFFF AND DUP2 PUSH20 0xFFFFFFFFFFFFFFFFFFFFFFFFFFFFFFFFFFFFFFFF AND PUSH32 0x8BE0079C531659141344CD1FD0A4F28419497F9722A3DAAFE3B4186F6B6457E0 PUSH1 0x40 MLOAD PUSH1 0x40 MLOAD DUP1 SWAP2 SUB SWAP1 LOG3 POP POP JUMP JUMPDEST PUSH1 0x0 DUP2 MLOAD SWAP1 POP SWAP2 SWAP1 POP JUMP JUMPDEST PUSH32 0x4E487B7100000000000000000000000000000000000000000000000000000000 PUSH1 0x0 MSTORE PUSH1 0x41 PUSH1 0x4 MSTORE PUSH1 0x24 PUSH1 0x0 REVERT JUMPDEST PUSH32 0x4E487B7100000000000000000000000000000000000000000000000000000000 PUSH1 0x0 MSTORE PUSH1 0x22 PUSH1 0x4 MSTORE PUSH1 0x24 PUSH1 0x0 REVERT JUMPDEST PUSH1 0x0 PUSH1 0x2 DUP3 DIV SWAP1 POP PUSH1 0x1 DUP3 AND DUP1 PUSH3 0x21E JUMPI PUSH1 0x7F DUP3 AND SWAP2 POP JUMPDEST PUSH1 0x20 DUP3 LT DUP2 SUB PUSH3 0x234 JUMPI PUSH3 0x233 PUSH3 0x1D6 JUMP JUMPDEST JUMPDEST POP SWAP2 SWAP1 POP JUMP JUMPDEST PUSH1 0x0 DUP2 SWAP1 POP DUP2 PUSH1 0x0 MSTORE PUSH1 0x20 PUSH1 0x0 KECCAK256 SWAP1 POP SWAP2 SWAP1 POP JUMP JUMPDEST PUSH1 0x0 PUSH1 0x20 PUSH1 0x1F DUP4 ADD DIV SWAP1 POP SWAP2 SWAP1 POP JUMP JUMPDEST PUSH1 0x0 DUP3 DUP3 SHL SWAP1 POP SWAP3 SWAP2 POP POP JUMP JUMPDEST PUSH1 0x0 PUSH1 0x8 DUP4 MUL PUSH3 0x29E PUSH32 0xFFFFFFFFFFFFFFFFFFFFFFFFFFFFFFFFFFFFFFFFFFFFFFFFFFFFFFFFFFFFFFFF DUP3 PUSH3 0x25F JUMP JUMPDEST PUSH3 0x2AA DUP7 DUP4 PUSH3 0x25F JUMP JUMPDEST SWAP6 POP DUP1 NOT DUP5 AND SWAP4 POP DUP1 DUP7 AND DUP5 OR SWAP3 POP POP POP SWAP4 SWAP3 POP POP POP JUMP JUMPDEST PUSH1 0x0 DUP2 SWAP1 POP SWAP2 SWAP1 POP JUMP JUMPDEST PUSH1 0x0 DUP2 SWAP1 POP SWAP2 SWAP1 POP JUMP JUMPDEST PUSH1 0x0 PUSH3 0x2F7 PUSH3 0x2F1 PUSH3 0x2EB DUP5 PUSH3 0x2C2 JUMP JUMPDEST PUSH3 0x2CC JUMP JUMPDEST PUSH3 0x2C2 JUMP JUMPDEST SWAP1 POP SWAP2 SWAP1 POP JUMP JUMPDEST PUSH1 0x0 DUP2 SWAP1 POP SWAP2 SWAP1 POP JUMP JUMPDEST PUSH3 0x313 DUP4 PUSH3 0x2D6 JUMP JUMPDEST PUSH3 0x32B PUSH3 0x322 DUP3 PUSH3 0x2FE JUMP JUMPDEST DUP5 DUP5 SLOAD PUSH3 0x26C JUMP JUMPDEST DUP3 SSTORE POP POP POP POP JUMP JUMPDEST PUSH1 0x0 SWAP1 JUMP JUMPDEST PUSH3 0x342 PUSH3 0x333 JUMP JUMPDEST PUSH3 0x34F DUP2 DUP5 DUP5 PUSH3 0x308 JUMP JUMPDEST POP POP POP JUMP JUMPDEST JUMPDEST DUP2 DUP2 LT ISZERO PUSH3 0x377 JUMPI PUSH3 0x36B PUSH1 0x0 DUP3 PUSH3 0x338 JUMP JUMPDEST PUSH1 0x1 DUP2 ADD SWAP1 POP PUSH3 0x355 JUMP JUMPDEST POP POP JUMP JUMPDEST PUSH1 0x1F DUP3 GT ISZERO PUSH3 0x3C6 JUMPI PUSH3 0x390 DUP2 PUSH3 0x23A JUMP JUMPDEST PUSH3 0x39B DUP5 PUSH3 0x24F JUMP JUMPDEST DUP2 ADD PUSH1 0x20 DUP6 LT ISZERO PUSH3 0x3AB JUMPI DUP2 SWAP1 POP JUMPDEST PUSH3 0x3C3 PUSH3 0x3BA DUP6 PUSH3 0x24F JUMP JUMPDEST DUP4 ADD DUP3 PUSH3 0x354 JUMP JUMPDEST POP POP JUMPDEST POP POP POP JUMP JUMPDEST PUSH1 0x0 DUP3 DUP3 SHR SWAP1 POP SWAP3 SWAP2 POP POP JUMP JUMPDEST PUSH1 0x0 PUSH3 0x3EB PUSH1 0x0 NOT DUP5 PUSH1 0x8 MUL PUSH3 0x3CB JUMP JUMPDEST NOT DUP1 DUP4 AND SWAP2 POP POP SWAP3 SWAP2 POP POP JUMP JUMPDEST PUSH1 0x0 PUSH3 0x406 DUP4 DUP4 PUSH3 0x3D8 JUMP JUMPDEST SWAP2 POP DUP3 PUSH1 0x2 MUL DUP3 OR SWAP1 POP SWAP3 SWAP2 POP POP JUMP JUMPDEST PUSH3 0x421 DUP3 PUSH3 0x19C JUMP JUMPDEST PUSH8 0xFFFFFFFFFFFFFFFF DUP2 GT ISZERO PUSH3 0x43D JUMPI PUSH3 0x43C PUSH3 0x1A7 JUMP JUMPDEST JUMPDEST PUSH3 0x449 DUP3 SLOAD PUSH3 0x205 JUMP JUMPDEST PUSH3 0x456 DUP3 DUP3 DUP6 PUSH3 0x37B JUMP JUMPDEST PUSH1 0x0 PUSH1 0x20 SWAP1 POP PUSH1 0x1F DUP4 GT PUSH1 0x1 DUP2 EQ PUSH3 0x48E JUMPI PUSH1 0x0 DUP5 ISZERO PUSH3 0x479 JUMPI DUP3 DUP8 ADD MLOAD SWAP1 POP JUMPDEST PUSH3 0x485 DUP6 DUP3 PUSH3 0x3F8 JUMP JUMPDEST DUP7 SSTORE POP PUSH3 0x4F5 JUMP JUMPDEST PUSH1 0x1F NOT DUP5 AND PUSH3 0x49E DUP7 PUSH3 0x23A JUMP JUMPDEST PUSH1 0x0 JUMPDEST DUP3 DUP2 LT ISZERO PUSH3 0x4C8 JUMPI DUP5 DUP10 ADD MLOAD DUP3 SSTORE PUSH1 0x1 DUP3 ADD SWAP2 POP PUSH1 0x20 DUP6 ADD SWAP5 POP PUSH1 0x20 DUP2 ADD SWAP1 POP PUSH3 0x4A1 JUMP JUMPDEST DUP7 DUP4 LT ISZERO PUSH3 0x4E8 JUMPI DUP5 DUP10 ADD MLOAD PUSH3 0x4E4 PUSH1 0x1F DUP10 AND DUP3 PUSH3 0x3D8 JUMP JUMPDEST DUP4 SSTORE POP JUMPDEST PUSH1 0x1 PUSH1 0x2 DUP9 MUL ADD DUP9 SSTORE POP POP POP JUMPDEST POP POP POP POP POP POP JUMP JUMPDEST PUSH2 0x10BE DUP1 PUSH3 0x50D PUSH1 0x0 CODECOPY PUSH1 0x0 RETURN INVALID PUSH1 0x80 PUSH1 0x40 MSTORE PUSH1 0x4 CALLDATASIZE LT PUSH2 0xA7 JUMPI PUSH1 0x0 CALLDATALOAD PUSH1 0xE0 SHR DUP1 PUSH4 0x9CD441DA GT PUSH2 0x64 JUMPI DUP1 PUSH4 0x9CD441DA EQ PUSH2 0x15E JUMPI DUP1 PUSH4 0xA22280A6 EQ PUSH2 0x17A JUMPI DUP1 PUSH4 0xD4CADF68 EQ PUSH2 0x196 JUMPI DUP1 PUSH4 0xF2FDE38B EQ PUSH2 0x1C2 JUMPI DUP1 PUSH4 0xF694F7D1 EQ PUSH2 0x1EB JUMPI DUP1 PUSH4 0xFC0C546A EQ PUSH2 0x216 JUMPI PUSH2 0xA7 JUMP JUMPDEST DUP1 PUSH4 0x2EAB2841 EQ PUSH2 0xAC JUMPI DUP1 PUSH4 0x58AD6DE4 EQ PUSH2 0xC8 JUMPI DUP1 PUSH4 0x715018A6 EQ PUSH2 0xE4 JUMPI DUP1 PUSH4 0x8259E6A0 EQ PUSH2 0xFB JUMPI DUP1 PUSH4 0x857620E1 EQ PUSH2 0x117 JUMPI DUP1 PUSH4 0x8DA5CB5B EQ PUSH2 0x133 JUMPI JUMPDEST PUSH1 0x0 DUP1 REVERT JUMPDEST PUSH2 0xC6 PUSH1 0x4 DUP1 CALLDATASIZE SUB DUP2 ADD SWAP1 PUSH2 0xC1 SWAP2 SWAP1 PUSH2 0x8C0 JUMP JUMPDEST PUSH2 0x241 JUMP JUMPDEST STOP JUMPDEST PUSH2 0xE2 PUSH1 0x4 DUP1 CALLDATASIZE SUB DUP2 ADD SWAP1 PUSH2 0xDD SWAP2 SWAP1 PUSH2 0x8ED JUMP JUMPDEST PUSH2 0x244 JUMP JUMPDEST STOP JUMPDEST CALLVALUE DUP1 ISZERO PUSH2 0xF0 JUMPI PUSH1 0x0 DUP1 REVERT JUMPDEST POP PUSH2 0xF9 PUSH2 0x248 JUMP JUMPDEST STOP JUMPDEST PUSH2 0x115 PUSH1 0x4 DUP1 CALLDATASIZE SUB DUP2 ADD SWAP1 PUSH2 0x110 SWAP2 SWAP1 PUSH2 0x8C0 JUMP JUMPDEST PUSH2 0x25C JUMP JUMPDEST STOP JUMPDEST PUSH2 0x131 PUSH1 0x4 DUP1 CALLDATASIZE SUB DUP2 ADD SWAP1 PUSH2 0x12C SWAP2 SWAP1 PUSH2 0x92D JUMP JUMPDEST PUSH2 0x5BD JUMP JUMPDEST STOP JUMPDEST CALLVALUE DUP1 ISZERO PUSH2 0x13F JUMPI PUSH1 0x0 DUP1 REVERT JUMPDEST POP PUSH2 0x148 PUSH2 0x5C2 JUMP JUMPDEST PUSH1 0x40 MLOAD PUSH2 0x155 SWAP2 SWAP1 PUSH2 0x9C1 JUMP JUMPDEST PUSH1 0x40 MLOAD DUP1 SWAP2 SUB SWAP1 RETURN JUMPDEST PUSH2 0x178 PUSH1 0x4 DUP1 CALLDATASIZE SUB DUP2 ADD SWAP1 PUSH2 0x173 SWAP2 SWAP1 PUSH2 0x8ED JUMP JUMPDEST PUSH2 0x5EB JUMP JUMPDEST STOP JUMPDEST PUSH2 0x194 PUSH1 0x4 DUP1 CALLDATASIZE SUB DUP2 ADD SWAP1 PUSH2 0x18F SWAP2 SWAP1 PUSH2 0x8ED JUMP JUMPDEST PUSH2 0x5EF JUMP JUMPDEST STOP JUMPDEST CALLVALUE DUP1 ISZERO PUSH2 0x1A2 JUMPI PUSH1 0x0 DUP1 REVERT JUMPDEST POP PUSH2 0x1AB PUSH2 0x5F3 JUMP JUMPDEST PUSH1 0x40 MLOAD PUSH2 0x1B9 SWAP3 SWAP2 SWAP1 PUSH2 0x9EB JUMP JUMPDEST PUSH1 0x40 MLOAD DUP1 SWAP2 SUB SWAP1 RETURN JUMPDEST CALLVALUE DUP1 ISZERO PUSH2 0x1CE JUMPI PUSH1 0x0 DUP1 REVERT JUMPDEST POP PUSH2 0x1E9 PUSH1 0x4 DUP1 CALLDATASIZE SUB DUP2 ADD SWAP1 PUSH2 0x1E4 SWAP2 SWAP1 PUSH2 0xA40 JUMP JUMPDEST PUSH2 0x604 JUMP JUMPDEST STOP JUMPDEST CALLVALUE DUP1 ISZERO PUSH2 0x1F7 JUMPI PUSH1 0x0 DUP1 REVERT JUMPDEST POP PUSH2 0x200 PUSH2 0x687 JUMP JUMPDEST PUSH1 0x40 MLOAD PUSH2 0x20D SWAP2 SWAP1 PUSH2 0xAFD JUMP JUMPDEST PUSH1 0x40 MLOAD DUP1 SWAP2 SUB SWAP1 RETURN JUMPDEST CALLVALUE DUP1 ISZERO PUSH2 0x222 JUMPI PUSH1 0x0 DUP1 REVERT JUMPDEST POP PUSH2 0x22B PUSH2 0x715 JUMP JUMPDEST PUSH1 0x40 MLOAD PUSH2 0x238 SWAP2 SWAP1 PUSH2 0xB7E JUMP JUMPDEST PUSH1 0x40 MLOAD DUP1 SWAP2 SUB SWAP1 RETURN JUMPDEST POP JUMP JUMPDEST POP POP JUMP JUMPDEST PUSH2 0x250 PUSH2 0x73B JUMP JUMPDEST PUSH2 0x25A PUSH1 0x0 PUSH2 0x7B9 JUMP JUMPDEST JUMP JUMPDEST PUSH2 0x264 PUSH2 0x73B JUMP JUMPDEST PUSH1 0x0 PUSH1 0x4 SLOAD EQ PUSH2 0x2A9 JUMPI PUSH1 0x40 MLOAD PUSH32 0x8C379A000000000000000000000000000000000000000000000000000000000 DUP2 MSTORE PUSH1 0x4 ADD PUSH2 0x2A0 SWAP1 PUSH2 0xBE5 JUMP JUMPDEST PUSH1 0x40 MLOAD DUP1 SWAP2 SUB SWAP1 REVERT JUMPDEST PUSH1 0x0 PUSH1 0x5 SLOAD EQ PUSH2 0x2EE JUMPI PUSH1 0x40 MLOAD PUSH32 0x8C379A000000000000000000000000000000000000000000000000000000000 DUP2 MSTORE PUSH1 0x4 ADD PUSH2 0x2E5 SWAP1 PUSH2 0xC51 JUMP JUMPDEST PUSH1 0x40 MLOAD DUP1 SWAP2 SUB SWAP1 REVERT JUMPDEST PUSH1 0x0 CALLVALUE GT PUSH2 0x331 JUMPI PUSH1 0x40 MLOAD PUSH32 0x8C379A000000000000000000000000000000000000000000000000000000000 DUP2 MSTORE PUSH1 0x4 ADD PUSH2 0x328 SWAP1 PUSH2 0xCBD JUMP JUMPDEST PUSH1 0x40 MLOAD DUP1 SWAP2 SUB SWAP1 REVERT JUMPDEST PUSH1 0x0 PUSH1 0x3 PUSH1 0x0 SWAP1 SLOAD SWAP1 PUSH2 0x100 EXP SWAP1 DIV PUSH20 0xFFFFFFFFFFFFFFFFFFFFFFFFFFFFFFFFFFFFFFFF AND PUSH20 0xFFFFFFFFFFFFFFFFFFFFFFFFFFFFFFFFFFFFFFFF AND PUSH4 0x70A08231 CALLER PUSH1 0x40 MLOAD DUP3 PUSH4 0xFFFFFFFF AND PUSH1 0xE0 SHL DUP2 MSTORE PUSH1 0x4 ADD PUSH2 0x38E SWAP2 SWAP1 PUSH2 0x9C1 JUMP JUMPDEST PUSH1 0x20 PUSH1 0x40 MLOAD DUP1 DUP4 SUB DUP2 DUP7 GAS STATICCALL ISZERO DUP1 ISZERO PUSH2 0x3AB JUMPI RETURNDATASIZE PUSH1 0x0 DUP1 RETURNDATACOPY RETURNDATASIZE PUSH1 0x0 REVERT JUMPDEST POP POP POP POP PUSH1 0x40 MLOAD RETURNDATASIZE PUSH1 0x1F NOT PUSH1 0x1F DUP3 ADD AND DUP3 ADD DUP1 PUSH1 0x40 MSTORE POP DUP2 ADD SWAP1 PUSH2 0x3CF SWAP2 SWAP1 PUSH2 0xCF2 JUMP JUMPDEST SWAP1 POP DUP1 DUP3 GT ISZERO PUSH2 0x414 JUMPI PUSH1 0x40 MLOAD PUSH32 0x8C379A000000000000000000000000000000000000000000000000000000000 DUP2 MSTORE PUSH1 0x4 ADD PUSH2 0x40B SWAP1 PUSH2 0xD91 JUMP JUMPDEST PUSH1 0x40 MLOAD DUP1 SWAP2 SUB SWAP1 REVERT JUMPDEST PUSH1 0x0 DUP3 GT PUSH2 0x457 JUMPI PUSH1 0x40 MLOAD PUSH32 0x8C379A000000000000000000000000000000000000000000000000000000000 DUP2 MSTORE PUSH1 0x4 ADD PUSH2 0x44E SWAP1 PUSH2 0xDFD JUMP JUMPDEST PUSH1 0x40 MLOAD DUP1 SWAP2 SUB SWAP1 REVERT JUMPDEST PUSH1 0x3 PUSH1 0x0 SWAP1 SLOAD SWAP1 PUSH2 0x100 EXP SWAP1 DIV PUSH20 0xFFFFFFFFFFFFFFFFFFFFFFFFFFFFFFFFFFFFFFFF AND PUSH20 0xFFFFFFFFFFFFFFFFFFFFFFFFFFFFFFFFFFFFFFFF AND PUSH4 0x23B872DD CALLER ADDRESS DUP6 PUSH1 0x40 MLOAD DUP5 PUSH4 0xFFFFFFFF AND PUSH1 0xE0 SHL DUP2 MSTORE PUSH1 0x4 ADD PUSH2 0x4B6 SWAP4 SWAP3 SWAP2 SWAP1 PUSH2 0xE1D JUMP JUMPDEST PUSH1 0x20 PUSH1 0x40 MLOAD DUP1 DUP4 SUB DUP2 PUSH1 0x0 DUP8 GAS CALL ISZERO DUP1 ISZERO PUSH2 0x4D5 JUMPI RETURNDATASIZE PUSH1 0x0 DUP1 RETURNDATACOPY RETURNDATASIZE PUSH1 0x0 REVERT JUMPDEST POP POP POP POP PUSH1 0x40 MLOAD RETURNDATASIZE PUSH1 0x1F NOT PUSH1 0x1F DUP3 ADD AND DUP3 ADD DUP1 PUSH1 0x40 MSTORE POP DUP2 ADD SWAP1 PUSH2 0x4F9 SWAP2 SWAP1 PUSH2 0xE8C JUMP JUMPDEST POP PUSH1 0x3 PUSH1 0x0 SWAP1 SLOAD SWAP1 PUSH2 0x100 EXP SWAP1 DIV PUSH20 0xFFFFFFFFFFFFFFFFFFFFFFFFFFFFFFFFFFFFFFFF AND PUSH20 0xFFFFFFFFFFFFFFFFFFFFFFFFFFFFFFFFFFFFFFFF AND PUSH4 0x70A08231 ADDRESS PUSH1 0x40 MLOAD DUP3 PUSH4 0xFFFFFFFF AND PUSH1 0xE0 SHL DUP2 MSTORE PUSH1 0x4 ADD PUSH2 0x555 SWAP2 SWAP1 PUSH2 0x9C1 JUMP JUMPDEST PUSH1 0x20 PUSH1 0x40 MLOAD DUP1 DUP4 SUB DUP2 DUP7 GAS STATICCALL ISZERO DUP1 ISZERO PUSH2 0x572 JUMPI RETURNDATASIZE PUSH1 0x0 DUP1 RETURNDATACOPY RETURNDATASIZE PUSH1 0x0 REVERT JUMPDEST POP POP POP POP PUSH1 0x40 MLOAD RETURNDATASIZE PUSH1 0x1F NOT PUSH1 0x1F DUP3 ADD AND DUP3 ADD DUP1 PUSH1 0x40 MSTORE POP DUP2 ADD SWAP1 PUSH2 0x596 SWAP2 SWAP1 PUSH2 0xCF2 JUMP JUMPDEST PUSH1 0x4 DUP2 SWAP1 SSTORE POP CALLVALUE PUSH1 0x5 DUP2 SWAP1 SSTORE POP PUSH1 0x5 SLOAD PUSH1 0x4 SLOAD PUSH2 0x5B3 SWAP2 SWAP1 PUSH2 0xEE8 JUMP JUMPDEST PUSH1 0xA DUP2 SWAP1 SSTORE POP POP POP JUMP JUMPDEST POP POP POP JUMP JUMPDEST PUSH1 0x0 DUP1 PUSH1 0x0 SWAP1 SLOAD SWAP1 PUSH2 0x100 EXP SWAP1 DIV PUSH20 0xFFFFFFFFFFFFFFFFFFFFFFFFFFFFFFFFFFFFFFFF AND SWAP1 POP SWAP1 JUMP JUMPDEST POP POP JUMP JUMPDEST POP POP JUMP JUMPDEST PUSH1 0x0 DUP1 PUSH1 0x8 SLOAD PUSH1 0x9 SLOAD SWAP2 POP SWAP2 POP SWAP1 SWAP2 JUMP JUMPDEST PUSH2 0x60C PUSH2 0x73B JUMP JUMPDEST PUSH1 0x0 PUSH20 0xFFFFFFFFFFFFFFFFFFFFFFFFFFFFFFFFFFFFFFFF AND DUP2 PUSH20 0xFFFFFFFFFFFFFFFFFFFFFFFFFFFFFFFFFFFFFFFF AND SUB PUSH2 0x67B JUMPI PUSH1 0x40 MLOAD PUSH32 0x8C379A000000000000000000000000000000000000000000000000000000000 DUP2 MSTORE PUSH1 0x4 ADD PUSH2 0x672 SWAP1 PUSH2 0xF9C JUMP JUMPDEST PUSH1 0x40 MLOAD DUP1 SWAP2 SUB SWAP1 REVERT JUMPDEST PUSH2 0x684 DUP2 PUSH2 0x7B9 JUMP JUMPDEST POP JUMP JUMPDEST PUSH1 0x1 DUP1 SLOAD PUSH2 0x694 SWAP1 PUSH2 0xFEB JUMP JUMPDEST DUP1 PUSH1 0x1F ADD PUSH1 0x20 DUP1 SWAP2 DIV MUL PUSH1 0x20 ADD PUSH1 0x40 MLOAD SWAP1 DUP2 ADD PUSH1 0x40 MSTORE DUP1 SWAP3 SWAP2 SWAP1 DUP2 DUP2 MSTORE PUSH1 0x20 ADD DUP3 DUP1 SLOAD PUSH2 0x6C0 SWAP1 PUSH2 0xFEB JUMP JUMPDEST DUP1 ISZERO PUSH2 0x70D JUMPI DUP1 PUSH1 0x1F LT PUSH2 0x6E2 JUMPI PUSH2 0x100 DUP1 DUP4 SLOAD DIV MUL DUP4 MSTORE SWAP2 PUSH1 0x20 ADD SWAP2 PUSH2 0x70D JUMP JUMPDEST DUP3 ADD SWAP2 SWAP1 PUSH1 0x0 MSTORE PUSH1 0x20 PUSH1 0x0 KECCAK256 SWAP1 JUMPDEST DUP2 SLOAD DUP2 MSTORE SWAP1 PUSH1 0x1 ADD SWAP1 PUSH1 0x20 ADD DUP1 DUP4 GT PUSH2 0x6F0 JUMPI DUP3 SWAP1 SUB PUSH1 0x1F AND DUP3 ADD SWAP2 JUMPDEST POP POP POP POP POP DUP2 JUMP JUMPDEST PUSH1 0x3 PUSH1 0x0 SWAP1 SLOAD SWAP1 PUSH2 0x100 EXP SWAP1 DIV PUSH20 0xFFFFFFFFFFFFFFFFFFFFFFFFFFFFFFFFFFFFFFFF AND DUP2 JUMP JUMPDEST PUSH2 0x743 PUSH2 0x87D JUMP JUMPDEST PUSH20 0xFFFFFFFFFFFFFFFFFFFFFFFFFFFFFFFFFFFFFFFF AND PUSH2 0x761 PUSH2 0x5C2 JUMP JUMPDEST PUSH20 0xFFFFFFFFFFFFFFFFFFFFFFFFFFFFFFFFFFFFFFFF AND EQ PUSH2 0x7B7 JUMPI PUSH1 0x40 MLOAD PUSH32 0x8C379A000000000000000000000000000000000000000000000000000000000 DUP2 MSTORE PUSH1 0x4 ADD PUSH2 0x7AE SWAP1 PUSH2 0x1068 JUMP JUMPDEST PUSH1 0x40 MLOAD DUP1 SWAP2 SUB SWAP1 REVERT JUMPDEST JUMP JUMPDEST PUSH1 0x0 DUP1 PUSH1 0x0 SWAP1 SLOAD SWAP1 PUSH2 0x100 EXP SWAP1 DIV PUSH20 0xFFFFFFFFFFFFFFFFFFFFFFFFFFFFFFFFFFFFFFFF AND SWAP1 POP DUP2 PUSH1 0x0 DUP1 PUSH2 0x100 EXP DUP2 SLOAD DUP2 PUSH20 0xFFFFFFFFFFFFFFFFFFFFFFFFFFFFFFFFFFFFFFFF MUL NOT AND SWAP1 DUP4 PUSH20 0xFFFFFFFFFFFFFFFFFFFFFFFFFFFFFFFFFFFFFFFF AND MUL OR SWAP1 SSTORE POP DUP2 PUSH20 0xFFFFFFFFFFFFFFFFFFFFFFFFFFFFFFFFFFFFFFFF AND DUP2 PUSH20 0xFFFFFFFFFFFFFFFFFFFFFFFFFFFFFFFFFFFFFFFF AND PUSH32 0x8BE0079C531659141344CD1FD0A4F28419497F9722A3DAAFE3B4186F6B6457E0 PUSH1 0x40 MLOAD PUSH1 0x40 MLOAD DUP1 SWAP2 SUB SWAP1 LOG3 POP POP JUMP JUMPDEST PUSH1 0x0 CALLER SWAP1 POP SWAP1 JUMP JUMPDEST PUSH1 0x0 DUP1 REVERT JUMPDEST PUSH1 0x0 DUP2 SWAP1 POP SWAP2 SWAP1 POP JUMP JUMPDEST PUSH2 0x89D DUP2 PUSH2 0x88A JUMP JUMPDEST DUP2 EQ PUSH2 0x8A8 JUMPI PUSH1 0x0 DUP1 REVERT JUMPDEST POP JUMP JUMPDEST PUSH1 0x0 DUP2 CALLDATALOAD SWAP1 POP PUSH2 0x8BA DUP2 PUSH2 0x894 JUMP JUMPDEST SWAP3 SWAP2 POP POP JUMP JUMPDEST PUSH1 0x0 PUSH1 0x20 DUP3 DUP5 SUB SLT ISZERO PUSH2 0x8D6 JUMPI PUSH2 0x8D5 PUSH2 0x885 JUMP JUMPDEST JUMPDEST PUSH1 0x0 PUSH2 0x8E4 DUP5 DUP3 DUP6 ADD PUSH2 0x8AB JUMP JUMPDEST SWAP2 POP POP SWAP3 SWAP2 POP POP JUMP JUMPDEST PUSH1 0x0 DUP1 PUSH1 0x40 DUP4 DUP6 SUB SLT ISZERO PUSH2 0x904 JUMPI PUSH2 0x903 PUSH2 0x885 JUMP JUMPDEST JUMPDEST PUSH1 0x0 PUSH2 0x912 DUP6 DUP3 DUP7 ADD PUSH2 0x8AB JUMP JUMPDEST SWAP3 POP POP PUSH1 0x20 PUSH2 0x923 DUP6 DUP3 DUP7 ADD PUSH2 0x8AB JUMP JUMPDEST SWAP2 POP POP SWAP3 POP SWAP3 SWAP1 POP JUMP JUMPDEST PUSH1 0x0 DUP1 PUSH1 0x0 PUSH1 0x60 DUP5 DUP7 SUB SLT ISZERO PUSH2 0x946 JUMPI PUSH2 0x945 PUSH2 0x885 JUMP JUMPDEST JUMPDEST PUSH1 0x0 PUSH2 0x954 DUP7 DUP3 DUP8 ADD PUSH2 0x8AB JUMP JUMPDEST SWAP4 POP POP PUSH1 0x20 PUSH2 0x965 DUP7 DUP3 DUP8 ADD PUSH2 0x8AB JUMP JUMPDEST SWAP3 POP POP PUSH1 0x40 PUSH2 0x976 DUP7 DUP3 DUP8 ADD PUSH2 0x8AB JUMP JUMPDEST SWAP2 POP POP SWAP3 POP SWAP3 POP SWAP3 JUMP JUMPDEST PUSH1 0x0 PUSH20 0xFFFFFFFFFFFFFFFFFFFFFFFFFFFFFFFFFFFFFFFF DUP3 AND SWAP1 POP SWAP2 SWAP1 POP JUMP JUMPDEST PUSH1 0x0 PUSH2 0x9AB DUP3 PUSH2 0x980 JUMP JUMPDEST SWAP1 POP SWAP2 SWAP1 POP JUMP JUMPDEST PUSH2 0x9BB DUP2 PUSH2 0x9A0 JUMP JUMPDEST DUP3 MSTORE POP POP JUMP JUMPDEST PUSH1 0x0 PUSH1 0x20 DUP3 ADD SWAP1 POP PUSH2 0x9D6 PUSH1 0x0 DUP4 ADD DUP5 PUSH2 0x9B2 JUMP JUMPDEST SWAP3 SWAP2 POP POP JUMP JUMPDEST PUSH2 0x9E5 DUP2 PUSH2 0x88A JUMP JUMPDEST DUP3 MSTORE POP POP JUMP JUMPDEST PUSH1 0x0 PUSH1 0x40 DUP3 ADD SWAP1 POP PUSH2 0xA00 PUSH1 0x0 DUP4 ADD DUP6 PUSH2 0x9DC JUMP JUMPDEST PUSH2 0xA0D PUSH1 0x20 DUP4 ADD DUP5 PUSH2 0x9DC JUMP JUMPDEST SWAP4 SWAP3 POP POP POP JUMP JUMPDEST PUSH2 0xA1D DUP2 PUSH2 0x9A0 JUMP JUMPDEST DUP2 EQ PUSH2 0xA28 JUMPI PUSH1 0x0 DUP1 REVERT JUMPDEST POP JUMP JUMPDEST PUSH1 0x0 DUP2 CALLDATALOAD SWAP1 POP PUSH2 0xA3A DUP2 PUSH2 0xA14 JUMP JUMPDEST SWAP3 SWAP2 POP POP JUMP JUMPDEST PUSH1 0x0 PUSH1 0x20 DUP3 DUP5 SUB SLT ISZERO PUSH2 0xA56 JUMPI PUSH2 0xA55 PUSH2 0x885 JUMP JUMPDEST JUMPDEST PUSH1 0x0 PUSH2 0xA64 DUP5 DUP3 DUP6 ADD PUSH2 0xA2B JUMP JUMPDEST SWAP2 POP POP SWAP3 SWAP2 POP POP JUMP JUMPDEST PUSH1 0x0 DUP2 MLOAD SWAP1 POP SWAP2 SWAP1 POP JUMP JUMPDEST PUSH1 0x0 DUP3 DUP3 MSTORE PUSH1 0x20 DUP3 ADD SWAP1 POP SWAP3 SWAP2 POP POP JUMP JUMPDEST PUSH1 0x0 JUMPDEST DUP4 DUP2 LT ISZERO PUSH2 0xAA7 JUMPI DUP1 DUP3 ADD MLOAD DUP2 DUP5 ADD MSTORE PUSH1 0x20 DUP2 ADD SWAP1 POP PUSH2 0xA8C JUMP JUMPDEST PUSH1 0x0 DUP5 DUP5 ADD MSTORE POP POP POP POP JUMP JUMPDEST PUSH1 0x0 PUSH1 0x1F NOT PUSH1 0x1F DUP4 ADD AND SWAP1 POP SWAP2 SWAP1 POP JUMP JUMPDEST PUSH1 0x0 PUSH2 0xACF DUP3 PUSH2 0xA6D JUMP JUMPDEST PUSH2 0xAD9 DUP2 DUP6 PUSH2 0xA78 JUMP JUMPDEST SWAP4 POP PUSH2 0xAE9 DUP2 DUP6 PUSH1 0x20 DUP7 ADD PUSH2 0xA89 JUMP JUMPDEST PUSH2 0xAF2 DUP2 PUSH2 0xAB3 JUMP JUMPDEST DUP5 ADD SWAP2 POP POP SWAP3 SWAP2 POP POP JUMP JUMPDEST PUSH1 0x0 PUSH1 0x20 DUP3 ADD SWAP1 POP DUP2 DUP2 SUB PUSH1 0x0 DUP4 ADD MSTORE PUSH2 0xB17 DUP2 DUP5 PUSH2 0xAC4 JUMP JUMPDEST SWAP1 POP SWAP3 SWAP2 POP POP JUMP JUMPDEST PUSH1 0x0 DUP2 SWAP1 POP SWAP2 SWAP1 POP JUMP JUMPDEST PUSH1 0x0 PUSH2 0xB44 PUSH2 0xB3F PUSH2 0xB3A DUP5 PUSH2 0x980 JUMP JUMPDEST PUSH2 0xB1F JUMP JUMPDEST PUSH2 0x980 JUMP JUMPDEST SWAP1 POP SWAP2 SWAP1 POP JUMP JUMPDEST PUSH1 0x0 PUSH2 0xB56 DUP3 PUSH2 0xB29 JUMP JUMPDEST SWAP1 POP SWAP2 SWAP1 POP JUMP JUMPDEST PUSH1 0x0 PUSH2 0xB68 DUP3 PUSH2 0xB4B JUMP JUMPDEST SWAP1 POP SWAP2 SWAP1 POP JUMP JUMPDEST PUSH2 0xB78 DUP2 PUSH2 0xB5D JUMP JUMPDEST DUP3 MSTORE POP POP JUMP JUMPDEST PUSH1 0x0 PUSH1 0x20 DUP3 ADD SWAP1 POP PUSH2 0xB93 PUSH1 0x0 DUP4 ADD DUP5 PUSH2 0xB6F JUMP JUMPDEST SWAP3 SWAP2 POP POP JUMP JUMPDEST PUSH32 0x546F6B656E20726573657276657320776173206E6F7420300000000000000000 PUSH1 0x0 DUP3 ADD MSTORE POP JUMP JUMPDEST PUSH1 0x0 PUSH2 0xBCF PUSH1 0x18 DUP4 PUSH2 0xA78 JUMP JUMPDEST SWAP2 POP PUSH2 0xBDA DUP3 PUSH2 0xB99 JUMP JUMPDEST PUSH1 0x20 DUP3 ADD SWAP1 POP SWAP2 SWAP1 POP JUMP JUMPDEST PUSH1 0x0 PUSH1 0x20 DUP3 ADD SWAP1 POP DUP2 DUP2 SUB PUSH1 0x0 DUP4 ADD MSTORE PUSH2 0xBFE DUP2 PUSH2 0xBC2 JUMP JUMPDEST SWAP1 POP SWAP2 SWAP1 POP JUMP JUMPDEST PUSH32 0x45544820726573657276657320776173206E6F7420302E000000000000000000 PUSH1 0x0 DUP3 ADD MSTORE POP JUMP JUMPDEST PUSH1 0x0 PUSH2 0xC3B PUSH1 0x17 DUP4 PUSH2 0xA78 JUMP JUMPDEST SWAP2 POP PUSH2 0xC46 DUP3 PUSH2 0xC05 JUMP JUMPDEST PUSH1 0x20 DUP3 ADD SWAP1 POP SWAP2 SWAP1 POP JUMP JUMPDEST PUSH1 0x0 PUSH1 0x20 DUP3 ADD SWAP1 POP DUP2 DUP2 SUB PUSH1 0x0 DUP4 ADD MSTORE PUSH2 0xC6A DUP2 PUSH2 0xC2E JUMP JUMPDEST SWAP1 POP SWAP2 SWAP1 POP JUMP JUMPDEST PUSH32 0x4E6565642065746820746F2063726561746520706F6F6C2E0000000000000000 PUSH1 0x0 DUP3 ADD MSTORE POP JUMP JUMPDEST PUSH1 0x0 PUSH2 0xCA7 PUSH1 0x18 DUP4 PUSH2 0xA78 JUMP JUMPDEST SWAP2 POP PUSH2 0xCB2 DUP3 PUSH2 0xC71 JUMP JUMPDEST PUSH1 0x20 DUP3 ADD SWAP1 POP SWAP2 SWAP1 POP JUMP JUMPDEST PUSH1 0x0 PUSH1 0x20 DUP3 ADD SWAP1 POP DUP2 DUP2 SUB PUSH1 0x0 DUP4 ADD MSTORE PUSH2 0xCD6 DUP2 PUSH2 0xC9A JUMP JUMPDEST SWAP1 POP SWAP2 SWAP1 POP JUMP JUMPDEST PUSH1 0x0 DUP2 MLOAD SWAP1 POP PUSH2 0xCEC DUP2 PUSH2 0x894 JUMP JUMPDEST SWAP3 SWAP2 POP POP JUMP JUMPDEST PUSH1 0x0 PUSH1 0x20 DUP3 DUP5 SUB SLT ISZERO PUSH2 0xD08 JUMPI PUSH2 0xD07 PUSH2 0x885 JUMP JUMPDEST JUMPDEST PUSH1 0x0 PUSH2 0xD16 DUP5 DUP3 DUP6 ADD PUSH2 0xCDD JUMP JUMPDEST SWAP2 POP POP SWAP3 SWAP2 POP POP JUMP JUMPDEST PUSH32 0x4E6F74206861766520656E6F75676820746F6B656E7320746F20637265617465 PUSH1 0x0 DUP3 ADD MSTORE PUSH32 0x2074686520706F6F6C0000000000000000000000000000000000000000000000 PUSH1 0x20 DUP3 ADD MSTORE POP JUMP JUMPDEST PUSH1 0x0 PUSH2 0xD7B PUSH1 0x29 DUP4 PUSH2 0xA78 JUMP JUMPDEST SWAP2 POP PUSH2 0xD86 DUP3 PUSH2 0xD1F JUMP JUMPDEST PUSH1 0x40 DUP3 ADD SWAP1 POP SWAP2 SWAP1 POP JUMP JUMPDEST PUSH1 0x0 PUSH1 0x20 DUP3 ADD SWAP1 POP DUP2 DUP2 SUB PUSH1 0x0 DUP4 ADD MSTORE PUSH2 0xDAA DUP2 PUSH2 0xD6E JUMP JUMPDEST SWAP1 POP SWAP2 SWAP1 POP JUMP JUMPDEST PUSH32 0x4E65656420746F6B656E7320746F2063726561746520706F6F6C2E0000000000 PUSH1 0x0 DUP3 ADD MSTORE POP JUMP JUMPDEST PUSH1 0x0 PUSH2 0xDE7 PUSH1 0x1B DUP4 PUSH2 0xA78 JUMP JUMPDEST SWAP2 POP PUSH2 0xDF2 DUP3 PUSH2 0xDB1 JUMP JUMPDEST PUSH1 0x20 DUP3 ADD SWAP1 POP SWAP2 SWAP1 POP JUMP JUMPDEST PUSH1 0x0 PUSH1 0x20 DUP3 ADD SWAP1 POP DUP2 DUP2 SUB PUSH1 0x0 DUP4 ADD MSTORE PUSH2 0xE16 DUP2 PUSH2 0xDDA JUMP JUMPDEST SWAP1 POP SWAP2 SWAP1 POP JUMP JUMPDEST PUSH1 0x0 PUSH1 0x60 DUP3 ADD SWAP1 POP PUSH2 0xE32 PUSH1 0x0 DUP4 ADD DUP7 PUSH2 0x9B2 JUMP JUMPDEST PUSH2 0xE3F PUSH1 0x20 DUP4 ADD DUP6 PUSH2 0x9B2 JUMP JUMPDEST PUSH2 0xE4C PUSH1 0x40 DUP4 ADD DUP5 PUSH2 0x9DC JUMP JUMPDEST SWAP5 SWAP4 POP POP POP POP JUMP JUMPDEST PUSH1 0x0 DUP2 ISZERO ISZERO SWAP1 POP SWAP2 SWAP1 POP JUMP JUMPDEST PUSH2 0xE69 DUP2 PUSH2 0xE54 JUMP JUMPDEST DUP2 EQ PUSH2 0xE74 JUMPI PUSH1 0x0 DUP1 REVERT JUMPDEST POP JUMP JUMPDEST PUSH1 0x0 DUP2 MLOAD SWAP1 POP PUSH2 0xE86 DUP2 PUSH2 0xE60 JUMP JUMPDEST SWAP3 SWAP2 POP POP JUMP JUMPDEST PUSH1 0x0 PUSH1 0x20 DUP3 DUP5 SUB SLT ISZERO PUSH2 0xEA2 JUMPI PUSH2 0xEA1 PUSH2 0x885 JUMP JUMPDEST JUMPDEST PUSH1 0x0 PUSH2 0xEB0 DUP5 DUP3 DUP6 ADD PUSH2 0xE77 JUMP JUMPDEST SWAP2 POP POP SWAP3 SWAP2 POP POP JUMP JUMPDEST PUSH32 0x4E487B7100000000000000000000000000000000000000000000000000000000 PUSH1 0x0 MSTORE PUSH1 0x11 PUSH1 0x4 MSTORE PUSH1 0x24 PUSH1 0x0 REVERT JUMPDEST PUSH1 0x0 PUSH2 0xEF3 DUP3 PUSH2 0x88A JUMP JUMPDEST SWAP2 POP PUSH2 0xEFE DUP4 PUSH2 0x88A JUMP JUMPDEST SWAP3 POP DUP3 DUP3 MUL PUSH2 0xF0C DUP2 PUSH2 0x88A JUMP JUMPDEST SWAP2 POP DUP3 DUP3 DIV DUP5 EQ DUP4 ISZERO OR PUSH2 0xF23 JUMPI PUSH2 0xF22 PUSH2 0xEB9 JUMP JUMPDEST JUMPDEST POP SWAP3 SWAP2 POP POP JUMP JUMPDEST PUSH32 0x4F776E61626C653A206E6577206F776E657220697320746865207A65726F2061 PUSH1 0x0 DUP3 ADD MSTORE PUSH32 0x6464726573730000000000000000000000000000000000000000000000000000 PUSH1 0x20 DUP3 ADD MSTORE POP JUMP JUMPDEST PUSH1 0x0 PUSH2 0xF86 PUSH1 0x26 DUP4 PUSH2 0xA78 JUMP JUMPDEST SWAP2 POP PUSH2 0xF91 DUP3 PUSH2 0xF2A JUMP JUMPDEST PUSH1 0x40 DUP3 ADD SWAP1 POP SWAP2 SWAP1 POP JUMP JUMPDEST PUSH1 0x0 PUSH1 0x20 DUP3 ADD SWAP1 POP DUP2 DUP2 SUB PUSH1 0x0 DUP4 ADD MSTORE PUSH2 0xFB5 DUP2 PUSH2 0xF79 JUMP JUMPDEST SWAP1 POP SWAP2 SWAP1 POP JUMP JUMPDEST PUSH32 0x4E487B7100000000000000000000000000000000000000000000000000000000 PUSH1 0x0 MSTORE PUSH1 0x22 PUSH1 0x4 MSTORE PUSH1 0x24 PUSH1 0x0 REVERT JUMPDEST PUSH1 0x0 PUSH1 0x2 DUP3 DIV SWAP1 POP PUSH1 0x1 DUP3 AND DUP1 PUSH2 0x1003 JUMPI PUSH1 0x7F DUP3 AND SWAP2 POP JUMPDEST PUSH1 0x20 DUP3 LT DUP2 SUB PUSH2 0x1016 JUMPI PUSH2 0x1015 PUSH2 0xFBC JUMP JUMPDEST JUMPDEST POP SWAP2 SWAP1 POP JUMP JUMPDEST PUSH32 0x4F776E61626C653A2063616C6C6572206973206E6F7420746865206F776E6572 PUSH1 0x0 DUP3 ADD MSTORE POP JUMP JUMPDEST PUSH1 0x0 PUSH2 0x1052 PUSH1 0x20 DUP4 PUSH2 0xA78 JUMP JUMPDEST SWAP2 POP PUSH2 0x105D DUP3 PUSH2 0x101C JUMP JUMPDEST PUSH1 0x20 DUP3 ADD SWAP1 POP SWAP2 SWAP1 POP JUMP JUMPDEST PUSH1 0x0 PUSH1 0x20 DUP3 ADD SWAP1 POP DUP2 DUP2 SUB PUSH1 0x0 DUP4 ADD MSTORE PUSH2 0x1081 DUP2 PUSH2 0x1045 JUMP JUMPDEST SWAP1 POP SWAP2 SWAP1 POP JUMP INVALID LOG2 PUSH5 0x6970667358 0x22 SLT KECCAK256 PUSH2 0x5D8 PUSH21 0x15231CE5D4B922800CFC63872B4DF70F405AE891CF 0xE 0x23 PUSH30 0x29ACE29B64736F6C63430008110033000000000000000000000000000000 "},"methodIdentifiers":{"addLiquidity(uint256,uint256)":"9cd441da","createPool(uint256)":"8259e6a0","exchange_name()":"f694f7d1","getSwapFee()":"d4cadf68","owner()":"8da5cb5b","removeAllLiquidity(uint256,uint256)":"58ad6de4","removeLiquidity(uint256,uint256,uint256)":"857620e1","renounceOwnership()":"715018a6","swapETHForTokens(uint256)":"2eab2841","swapTokensForETH(uint256,uint256)":"a22280a6","token()":"fc0c546a","transferOwnership(address)":"f2fde38b"}}}}}